{
  "contractName": "Authentication",
  "abi": [
    {
      "anonymous": false,
      "inputs": [
        {
          "indexed": true,
          "internalType": "address",
          "name": "userAddress",
          "type": "address"
        }
      ],
      "name": "TwoFactorEnabled",
      "type": "event"
    },
    {
      "anonymous": false,
      "inputs": [
        {
          "indexed": true,
          "internalType": "address",
          "name": "userAddress",
          "type": "address"
        },
        {
          "indexed": false,
          "internalType": "uint256",
          "name": "timestamp",
          "type": "uint256"
        }
      ],
      "name": "UserLoggedIn",
      "type": "event"
    },
    {
      "anonymous": false,
      "inputs": [
        {
          "indexed": true,
          "internalType": "address",
          "name": "userAddress",
          "type": "address"
        },
        {
          "indexed": false,
          "internalType": "string",
          "name": "role",
          "type": "string"
        }
      ],
      "name": "UserRegistered",
      "type": "event"
    },
    {
      "inputs": [
        {
          "internalType": "address",
          "name": "",
          "type": "address"
        }
      ],
      "name": "pendingTwoFactorAuth",
      "outputs": [
        {
          "internalType": "bool",
          "name": "",
          "type": "bool"
        }
      ],
      "stateMutability": "view",
      "type": "function",
      "constant": true
    },
    {
      "inputs": [
        {
          "internalType": "address",
          "name": "",
          "type": "address"
        }
      ],
      "name": "users",
      "outputs": [
        {
          "internalType": "bool",
          "name": "isRegistered",
          "type": "bool"
        },
        {
          "internalType": "string",
          "name": "role",
          "type": "string"
        },
        {
          "internalType": "uint256",
          "name": "lastLogin",
          "type": "uint256"
        },
        {
          "internalType": "bool",
          "name": "is2FAEnabled",
          "type": "bool"
        },
        {
          "internalType": "bytes32",
          "name": "twoFactorSecret",
          "type": "bytes32"
        }
      ],
      "stateMutability": "view",
      "type": "function",
      "constant": true
    },
    {
      "inputs": [
        {
          "internalType": "address",
          "name": "_userAddress",
          "type": "address"
        },
        {
          "internalType": "string",
          "name": "_role",
          "type": "string"
        }
      ],
      "name": "registerUser",
      "outputs": [],
      "stateMutability": "nonpayable",
      "type": "function"
    },
    {
      "inputs": [
        {
          "internalType": "bytes32",
          "name": "_secret",
          "type": "bytes32"
        }
      ],
      "name": "enable2FA",
      "outputs": [],
      "stateMutability": "nonpayable",
      "type": "function"
    },
    {
      "inputs": [],
      "name": "initiateLogin",
      "outputs": [],
      "stateMutability": "nonpayable",
      "type": "function"
    },
    {
      "inputs": [
        {
          "internalType": "string",
          "name": "_code",
          "type": "string"
        }
      ],
      "name": "complete2FALogin",
      "outputs": [],
      "stateMutability": "nonpayable",
      "type": "function"
    },
    {
      "inputs": [
        {
          "internalType": "address",
          "name": "_userAddress",
          "type": "address"
        }
      ],
      "name": "isUserRegistered",
      "outputs": [
        {
          "internalType": "bool",
          "name": "",
          "type": "bool"
        }
      ],
      "stateMutability": "view",
      "type": "function",
      "constant": true
    },
    {
      "inputs": [
        {
          "internalType": "address",
          "name": "_userAddress",
          "type": "address"
        }
      ],
      "name": "getUserRole",
      "outputs": [
        {
          "internalType": "string",
          "name": "",
          "type": "string"
        }
      ],
      "stateMutability": "view",
      "type": "function",
      "constant": true
    },
    {
      "inputs": [
        {
          "internalType": "address",
          "name": "_userAddress",
          "type": "address"
        }
      ],
      "name": "is2FAEnabled",
      "outputs": [
        {
          "internalType": "bool",
          "name": "",
          "type": "bool"
        }
      ],
      "stateMutability": "view",
      "type": "function",
      "constant": true
    }
  ],
  "bytecode": "0x608060405234801561001057600080fd5b50611466806100206000396000f3fe608060405234801561001057600080fd5b50600436106100935760003560e01c80633f13e26f116100665780633f13e26f146101305780635c60b1e41461016057806371f1ad6214610190578063869c072f1461019a578063a87430ba146101b657610093565b80630399a8b9146100985780630ea126f9146100b4578063163f7522146100d05780632782085114610100575b600080fd5b6100b260048036038101906100ad9190610eb7565b6101ea565b005b6100ce60048036038101906100c99190610e3a565b610437565b005b6100ea60048036038101906100e59190610e11565b6105fb565b6040516100f791906110de565b60405180910390f35b61011a60048036038101906101159190610e11565b610653565b6040516101279190611153565b60405180910390f35b61014a60048036038101906101459190610e11565b6107b4565b60405161015791906110de565b60405180910390f35b61017a60048036038101906101759190610e11565b6107d4565b60405161018791906110de565b60405180910390f35b61019861082c565b005b6101b460048036038101906101af9190610e8e565b610a01565b005b6101d060048036038101906101cb9190610e11565b610c04565b6040516101e19594939291906110f9565b60405180910390f35b600160003373ffffffffffffffffffffffffffffffffffffffff1673ffffffffffffffffffffffffffffffffffffffff16815260200190815260200160002060009054906101000a900460ff16610276576040517f08c379a000000000000000000000000000000000000000000000000000000000815260040161026d90611215565b60405180910390fd5b6000803373ffffffffffffffffffffffffffffffffffffffff1673ffffffffffffffffffffffffffffffffffffffff16815260200190815260200160002060030160009054906101000a900460ff16610304576040517f08c379a00000000000000000000000000000000000000000000000000000000081526004016102fb906111b5565b60405180910390fd5b6000815111610348576040517f08c379a000000000000000000000000000000000000000000000000000000000815260040161033f906111d5565b60405180910390fd5b6000600160003373ffffffffffffffffffffffffffffffffffffffff1673ffffffffffffffffffffffffffffffffffffffff16815260200190815260200160002060006101000a81548160ff021916908315150217905550426000803373ffffffffffffffffffffffffffffffffffffffff1673ffffffffffffffffffffffffffffffffffffffff168152602001908152602001600020600201819055503373ffffffffffffffffffffffffffffffffffffffff167fd48e107b75fb4263f47c6775f9695146041b81f4e0eac8b4d6075fd5756cba944260405161042c9190611235565b60405180910390a250565b6000808373ffffffffffffffffffffffffffffffffffffffff1673ffffffffffffffffffffffffffffffffffffffff16815260200190815260200160002060000160009054906101000a900460ff16156104c6576040517f08c379a00000000000000000000000000000000000000000000000000000000081526004016104bd906111f5565b60405180910390fd5b6040518060a00160405280600115158152602001828152602001600081526020016000151581526020016000801b8152506000808473ffffffffffffffffffffffffffffffffffffffff1673ffffffffffffffffffffffffffffffffffffffff16815260200190815260200160002060008201518160000160006101000a81548160ff0219169083151502179055506020820151816001019080519060200190610571929190610cdc565b506040820151816002015560608201518160030160006101000a81548160ff021916908315150217905550608082015181600401559050508173ffffffffffffffffffffffffffffffffffffffff167f48cac28ad4dc618e15f4c2dd5e97751182f166de97b25618318b2112aa951a2f826040516105ef9190611153565b60405180910390a25050565b60008060008373ffffffffffffffffffffffffffffffffffffffff1673ffffffffffffffffffffffffffffffffffffffff16815260200190815260200160002060000160009054906101000a900460ff169050919050565b60606000808373ffffffffffffffffffffffffffffffffffffffff1673ffffffffffffffffffffffffffffffffffffffff16815260200190815260200160002060000160009054906101000a900460ff166106e3576040517f08c379a00000000000000000000000000000000000000000000000000000000081526004016106da90611175565b60405180910390fd5b6000808373ffffffffffffffffffffffffffffffffffffffff1673ffffffffffffffffffffffffffffffffffffffff168152602001908152602001600020600101805461072f90611361565b80601f016020809104026020016040519081016040528092919081815260200182805461075b90611361565b80156107a85780601f1061077d576101008083540402835291602001916107a8565b820191906000526020600020905b81548152906001019060200180831161078b57829003601f168201915b50505050509050919050565b60016020528060005260406000206000915054906101000a900460ff1681565b60008060008373ffffffffffffffffffffffffffffffffffffffff1673ffffffffffffffffffffffffffffffffffffffff16815260200190815260200160002060030160009054906101000a900460ff169050919050565b6000803373ffffffffffffffffffffffffffffffffffffffff1673ffffffffffffffffffffffffffffffffffffffff16815260200190815260200160002060000160009054906101000a900460ff166108ba576040517f08c379a00000000000000000000000000000000000000000000000000000000081526004016108b190611175565b60405180910390fd5b6000803373ffffffffffffffffffffffffffffffffffffffff1673ffffffffffffffffffffffffffffffffffffffff16815260200190815260200160002060030160009054906101000a900460ff161561096a5760018060003373ffffffffffffffffffffffffffffffffffffffff1673ffffffffffffffffffffffffffffffffffffffff16815260200190815260200160002060006101000a81548160ff0219169083151502179055506109ff565b426000803373ffffffffffffffffffffffffffffffffffffffff1673ffffffffffffffffffffffffffffffffffffffff168152602001908152602001600020600201819055503373ffffffffffffffffffffffffffffffffffffffff167fd48e107b75fb4263f47c6775f9695146041b81f4e0eac8b4d6075fd5756cba94426040516109f69190611235565b60405180910390a25b565b6000803373ffffffffffffffffffffffffffffffffffffffff1673ffffffffffffffffffffffffffffffffffffffff16815260200190815260200160002060000160009054906101000a900460ff16610a8f576040517f08c379a0000000000000000000000000000000000000000000000000000000008152600401610a8690611175565b60405180910390fd5b6000803373ffffffffffffffffffffffffffffffffffffffff1673ffffffffffffffffffffffffffffffffffffffff16815260200190815260200160002060030160009054906101000a900460ff1615610b1e576040517f08c379a0000000000000000000000000000000000000000000000000000000008152600401610b1590611195565b60405180910390fd5b60016000803373ffffffffffffffffffffffffffffffffffffffff1673ffffffffffffffffffffffffffffffffffffffff16815260200190815260200160002060030160006101000a81548160ff021916908315150217905550806000803373ffffffffffffffffffffffffffffffffffffffff1673ffffffffffffffffffffffffffffffffffffffff168152602001908152602001600020600401819055503373ffffffffffffffffffffffffffffffffffffffff167f4b31ed05a4d8ce9de4f9d476a272179c7af15d7fddd9adaaea416ab9e799edeb60405160405180910390a250565b60006020528060005260406000206000915090508060000160009054906101000a900460ff1690806001018054610c3a90611361565b80601f0160208091040260200160405190810160405280929190818152602001828054610c6690611361565b8015610cb35780601f10610c8857610100808354040283529160200191610cb3565b820191906000526020600020905b815481529060010190602001808311610c9657829003601f168201915b5050505050908060020154908060030160009054906101000a900460ff16908060040154905085565b828054610ce890611361565b90600052602060002090601f016020900481019282610d0a5760008555610d51565b82601f10610d2357805160ff1916838001178555610d51565b82800160010185558215610d51579182015b82811115610d50578251825591602001919060010190610d35565b5b509050610d5e9190610d62565b5090565b5b80821115610d7b576000816000905550600101610d63565b5090565b6000610d92610d8d84611281565b611250565b905082815260208101848484011115610daa57600080fd5b610db584828561131f565b509392505050565b600081359050610dcc81611402565b92915050565b600081359050610de181611419565b92915050565b600082601f830112610df857600080fd5b8135610e08848260208601610d7f565b91505092915050565b600060208284031215610e2357600080fd5b6000610e3184828501610dbd565b91505092915050565b60008060408385031215610e4d57600080fd5b6000610e5b85828601610dbd565b925050602083013567ffffffffffffffff811115610e7857600080fd5b610e8485828601610de7565b9150509250929050565b600060208284031215610ea057600080fd5b6000610eae84828501610dd2565b91505092915050565b600060208284031215610ec957600080fd5b600082013567ffffffffffffffff811115610ee357600080fd5b610eef84828501610de7565b91505092915050565b610f01816112df565b82525050565b610f10816112eb565b82525050565b6000610f21826112b1565b610f2b81856112bc565b9350610f3b81856020860161132e565b610f44816113f1565b840191505092915050565b6000610f5c6013836112bc565b91507f55736572206e6f742072656769737465726564000000000000000000000000006000830152602082019050919050565b6000610f9c6013836112bc565b91507f32464120616c726561647920656e61626c6564000000000000000000000000006000830152602082019050919050565b6000610fdc600f836112bc565b91507f324641206e6f7420656e61626c656400000000000000000000000000000000006000830152602082019050919050565b600061101c6010836112bc565b91507f496e76616c69642032464120636f6465000000000000000000000000000000006000830152602082019050919050565b600061105c6017836112bc565b91507f5573657220616c726561647920726567697374657265640000000000000000006000830152602082019050919050565b600061109c6014836112bc565b91507f4e6f2070656e64696e6720324641206c6f67696e0000000000000000000000006000830152602082019050919050565b6110d881611315565b82525050565b60006020820190506110f36000830184610ef8565b92915050565b600060a08201905061110e6000830188610ef8565b81810360208301526111208187610f16565b905061112f60408301866110cf565b61113c6060830185610ef8565b6111496080830184610f07565b9695505050505050565b6000602082019050818103600083015261116d8184610f16565b905092915050565b6000602082019050818103600083015261118e81610f4f565b9050919050565b600060208201905081810360008301526111ae81610f8f565b9050919050565b600060208201905081810360008301526111ce81610fcf565b9050919050565b600060208201905081810360008301526111ee8161100f565b9050919050565b6000602082019050818103600083015261120e8161104f565b9050919050565b6000602082019050818103600083015261122e8161108f565b9050919050565b600060208201905061124a60008301846110cf565b92915050565b6000604051905081810181811067ffffffffffffffff82111715611277576112766113c2565b5b8060405250919050565b600067ffffffffffffffff82111561129c5761129b6113c2565b5b601f19601f8301169050602081019050919050565b600081519050919050565b600082825260208201905092915050565b60006112d8826112f5565b9050919050565b60008115159050919050565b6000819050919050565b600073ffffffffffffffffffffffffffffffffffffffff82169050919050565b6000819050919050565b82818337600083830152505050565b60005b8381101561134c578082015181840152602081019050611331565b8381111561135b576000848401525b50505050565b6000600282049050600182168061137957607f821691505b6020821081141561138d5761138c611393565b5b50919050565b7f4e487b7100000000000000000000000000000000000000000000000000000000600052602260045260246000fd5b7f4e487b7100000000000000000000000000000000000000000000000000000000600052604160045260246000fd5b6000601f19601f8301169050919050565b61140b816112cd565b811461141657600080fd5b50565b611422816112eb565b811461142d57600080fd5b5056fea2646970667358221220c3658ee10bc2f71e19feac501232292c02995097189bb1999e8168caa4d8d9a564736f6c63430008000033",
  "immutableReferences": {},
  "source": "// SPDX-License-Identifier: MIT\npragma solidity ^0.8.0;\n\ncontract Authentication {\n    struct User {\n        bool isRegistered;\n        string role;\n        uint256 lastLogin;\n        bool is2FAEnabled;\n        bytes32 twoFactorSecret;\n    }\n    \n    mapping(address => User) public users;\n    mapping(address => bool) public pendingTwoFactorAuth;\n    \n    event UserRegistered(address indexed userAddress, string role);\n    event UserLoggedIn(address indexed userAddress, uint256 timestamp);\n    event TwoFactorEnabled(address indexed userAddress);\n    \n    function registerUser(address _userAddress, string memory _role) public {\n        require(!users[_userAddress].isRegistered, \"User already registered\");\n        \n        users[_userAddress] = User({\n            isRegistered: true,\n            role: _role,\n            lastLogin: 0,\n            is2FAEnabled: false,\n            twoFactorSecret: bytes32(0)\n        });\n        \n        emit UserRegistered(_userAddress, _role);\n    }\n    \n    function enable2FA(bytes32 _secret) public {\n        require(users[msg.sender].isRegistered, \"User not registered\");\n        require(!users[msg.sender].is2FAEnabled, \"2FA already enabled\");\n        \n        users[msg.sender].is2FAEnabled = true;\n        users[msg.sender].twoFactorSecret = _secret;\n        \n        emit TwoFactorEnabled(msg.sender);\n    }\n    \n    function initiateLogin() public {\n        require(users[msg.sender].isRegistered, \"User not registered\");\n        if (users[msg.sender].is2FAEnabled) {\n            pendingTwoFactorAuth[msg.sender] = true;\n        } else {\n            users[msg.sender].lastLogin = block.timestamp;\n            emit UserLoggedIn(msg.sender, block.timestamp);\n        }\n    }\n    \n    function complete2FALogin(string memory _code) public {\n        require(pendingTwoFactorAuth[msg.sender], \"No pending 2FA login\");\n        require(users[msg.sender].is2FAEnabled, \"2FA not enabled\");\n        \n        // In a real implementation, we would verify the code here\n        // For this demo, we'll accept any non-empty code\n        require(bytes(_code).length > 0, \"Invalid 2FA code\");\n        \n        pendingTwoFactorAuth[msg.sender] = false;\n        users[msg.sender].lastLogin = block.timestamp;\n        emit UserLoggedIn(msg.sender, block.timestamp);\n    }\n    \n    function isUserRegistered(address _userAddress) public view returns (bool) {\n        return users[_userAddress].isRegistered;\n    }\n    \n    function getUserRole(address _userAddress) public view returns (string memory) {\n        require(users[_userAddress].isRegistered, \"User not registered\");\n        return users[_userAddress].role;\n    }\n    \n    function is2FAEnabled(address _userAddress) public view returns (bool) {\n        return users[_userAddress].is2FAEnabled;\n    }\n} ",
  "sourcePath": "/Users/tharushkadinujaya/Developer/ZKPhealth/contracts/Authentication.sol",
  "compiler": {
    "name": "solc",
    "version": "0.8.0+commit.c7dfd78e.Emscripten.clang"
  },
  "schemaVersion": "3.4.16",
  "updatedAt": "2024-11-23T16:32:39.001Z",
  "networkType": "ethereum",
  "devdoc": {
    "kind": "dev",
    "methods": {},
    "version": 1
  },
  "userdoc": {
    "kind": "user",
    "methods": {},
    "version": 1
  }
}