{
  "contractName": "Authentication",
  "abi": [
    {
      "anonymous": false,
      "inputs": [
        {
          "indexed": true,
          "internalType": "address",
          "name": "userAddress",
          "type": "address"
        },
        {
          "indexed": false,
          "internalType": "uint256",
          "name": "timestamp",
          "type": "uint256"
        }
      ],
      "name": "UserLoggedIn",
      "type": "event"
    },
    {
      "anonymous": false,
      "inputs": [
        {
          "indexed": true,
          "internalType": "address",
          "name": "userAddress",
          "type": "address"
        },
        {
          "indexed": false,
          "internalType": "string",
          "name": "role",
          "type": "string"
        }
      ],
      "name": "UserRegistered",
      "type": "event"
    },
    {
      "inputs": [
        {
          "internalType": "address",
          "name": "",
          "type": "address"
        }
      ],
      "name": "users",
      "outputs": [
        {
          "internalType": "bool",
          "name": "isRegistered",
          "type": "bool"
        },
        {
          "internalType": "string",
          "name": "role",
          "type": "string"
        },
        {
          "internalType": "uint256",
          "name": "lastLogin",
          "type": "uint256"
        }
      ],
      "stateMutability": "view",
      "type": "function",
      "constant": true
    },
    {
      "inputs": [
        {
          "internalType": "address",
          "name": "_userAddress",
          "type": "address"
        },
        {
          "internalType": "string",
          "name": "_role",
          "type": "string"
        }
      ],
      "name": "registerUser",
      "outputs": [],
      "stateMutability": "nonpayable",
      "type": "function"
    },
    {
      "inputs": [],
      "name": "login",
      "outputs": [],
      "stateMutability": "nonpayable",
      "type": "function"
    },
    {
      "inputs": [
        {
          "internalType": "address",
          "name": "_userAddress",
          "type": "address"
        }
      ],
      "name": "isUserRegistered",
      "outputs": [
        {
          "internalType": "bool",
          "name": "",
          "type": "bool"
        }
      ],
      "stateMutability": "view",
      "type": "function",
      "constant": true
    },
    {
      "inputs": [
        {
          "internalType": "address",
          "name": "_userAddress",
          "type": "address"
        }
      ],
      "name": "getUserRole",
      "outputs": [
        {
          "internalType": "string",
          "name": "",
          "type": "string"
        }
      ],
      "stateMutability": "view",
      "type": "function",
      "constant": true
    }
  ],
  "bytecode": "0x608060405234801561001057600080fd5b50610715806100206000396000f3fe608060405234801561001057600080fd5b50600436106100575760003560e01c80630ea126f91461005c578063163f752214610071578063278208511461009a578063a87430ba146100ba578063b34e97e8146100dc575b600080fd5b61006f61006a3660046104d9565b6100e4565b005b61008461007f3660046104b8565b6101d1565b60405161009191906105d8565b60405180910390f35b6100ad6100a83660046104b8565b6101f3565b604051610091919061060e565b6100cd6100c83660046104b8565b6102d9565b604051610091939291906105e3565b61006f610388565b6001600160a01b03821660009081526020819052604090205460ff16156101265760405162461bcd60e51b815260040161011d9061064e565b60405180910390fd5b604080516060810182526001808252602080830185815260008486018190526001600160a01b0388168152808352949094208351815460ff19169015151781559351805193949361017e938501929190910190610408565b5060408201518160020155905050816001600160a01b03167f48cac28ad4dc618e15f4c2dd5e97751182f166de97b25618318b2112aa951a2f826040516101c5919061060e565b60405180910390a25050565b6001600160a01b03811660009081526020819052604090205460ff165b919050565b6001600160a01b03811660009081526020819052604090205460609060ff1661022e5760405162461bcd60e51b815260040161011d90610621565b6001600160a01b038216600090815260208190526040902060010180546102549061068e565b80601f01602080910402602001604051908101604052809291908181526020018280546102809061068e565b80156102cd5780601f106102a2576101008083540402835291602001916102cd565b820191906000526020600020905b8154815290600101906020018083116102b057829003601f168201915b50505050509050919050565b6000602081905290815260409020805460018201805460ff90921692916102ff9061068e565b80601f016020809104026020016040519081016040528092919081815260200182805461032b9061068e565b80156103785780601f1061034d57610100808354040283529160200191610378565b820191906000526020600020905b81548152906001019060200180831161035b57829003601f168201915b5050505050908060020154905083565b3360009081526020819052604090205460ff166103b75760405162461bcd60e51b815260040161011d90610621565b336000818152602081905260409081902042600290910181905590517fd48e107b75fb4263f47c6775f9695146041b81f4e0eac8b4d6075fd5756cba94916103fe91610685565b60405180910390a2565b8280546104149061068e565b90600052602060002090601f016020900481019282610436576000855561047c565b82601f1061044f57805160ff191683800117855561047c565b8280016001018555821561047c579182015b8281111561047c578251825591602001919060010190610461565b5061048892915061048c565b5090565b5b80821115610488576000815560010161048d565b80356001600160a01b03811681146101ee57600080fd5b6000602082840312156104c9578081fd5b6104d2826104a1565b9392505050565b600080604083850312156104eb578081fd5b6104f4836104a1565b915060208084013567ffffffffffffffff80821115610511578384fd5b818601915086601f830112610524578384fd5b813581811115610536576105366106c9565b604051601f8201601f1916810185018381118282101715610559576105596106c9565b604052818152838201850189101561056f578586fd5b81858501868301378585838301015280955050505050509250929050565b60008151808452815b818110156105b257602081850181015186830182015201610596565b818111156105c35782602083870101525b50601f01601f19169290920160200192915050565b901515815260200190565b60008415158252606060208301526105fe606083018561058d565b9050826040830152949350505050565b6000602082526104d2602083018461058d565b602080825260139082015272155cd95c881b9bdd081c9959da5cdd195c9959606a1b604082015260600190565b60208082526017908201527f5573657220616c72656164792072656769737465726564000000000000000000604082015260600190565b90815260200190565b6002810460018216806106a257607f821691505b602082108114156106c357634e487b7160e01b600052602260045260246000fd5b50919050565b634e487b7160e01b600052604160045260246000fdfea2646970667358221220a6de769f6f15ebc2a76c08fc12a097fc8ca0d598113ae608145126e75e2a7bdf64736f6c63430008000033",
  "immutableReferences": {},
  "source": "// SPDX-License-Identifier: MIT\npragma solidity ^0.8.0;\n\ncontract Authentication {\n    struct User {\n        bool isRegistered;\n        string role;\n        uint256 lastLogin;\n    }\n    \n    mapping(address => User) public users;\n    \n    event UserRegistered(address indexed userAddress, string role);\n    event UserLoggedIn(address indexed userAddress, uint256 timestamp);\n    \n    function registerUser(address _userAddress, string memory _role) public {\n        require(!users[_userAddress].isRegistered, \"User already registered\");\n        \n        users[_userAddress] = User({\n            isRegistered: true,\n            role: _role,\n            lastLogin: 0\n        });\n        \n        emit UserRegistered(_userAddress, _role);\n    }\n    \n    function login() public {\n        require(users[msg.sender].isRegistered, \"User not registered\");\n        users[msg.sender].lastLogin = block.timestamp;\n        emit UserLoggedIn(msg.sender, block.timestamp);\n    }\n    \n    function isUserRegistered(address _userAddress) public view returns (bool) {\n        return users[_userAddress].isRegistered;\n    }\n    \n    function getUserRole(address _userAddress) public view returns (string memory) {\n        require(users[_userAddress].isRegistered, \"User not registered\");\n        return users[_userAddress].role;\n    }\n} ",
  "sourcePath": "/Users/tharushkadinujaya/Developer/ZKPhealth/contracts/Authentication.sol",
  "compiler": {
    "name": "solc",
    "version": "0.8.0+commit.c7dfd78e.Emscripten.clang"
  },
  "schemaVersion": "3.4.16",
  "updatedAt": "2024-11-23T15:35:21.934Z",
  "networkType": "ethereum",
  "devdoc": {
    "kind": "dev",
    "methods": {},
    "version": 1
  },
  "userdoc": {
    "kind": "user",
    "methods": {},
    "version": 1
  }
}