{
  "contractName": "Authentication",
  "abi": [
    {
      "inputs": [],
      "stateMutability": "nonpayable",
      "type": "constructor"
    },
    {
      "anonymous": false,
      "inputs": [
        {
          "indexed": true,
          "internalType": "address",
          "name": "patientAddress",
          "type": "address"
        },
        {
          "indexed": false,
          "internalType": "string",
          "name": "patientId",
          "type": "string"
        },
        {
          "indexed": true,
          "internalType": "address",
          "name": "doctorAddress",
          "type": "address"
        },
        {
          "indexed": false,
          "internalType": "uint256",
          "name": "timestamp",
          "type": "uint256"
        }
      ],
      "name": "PatientRecordCreated",
      "type": "event"
    },
    {
      "anonymous": false,
      "inputs": [
        {
          "indexed": true,
          "internalType": "address",
          "name": "userAddress",
          "type": "address"
        }
      ],
      "name": "TwoFactorEnabled",
      "type": "event"
    },
    {
      "anonymous": false,
      "inputs": [
        {
          "indexed": true,
          "internalType": "address",
          "name": "userAddress",
          "type": "address"
        },
        {
          "indexed": false,
          "internalType": "uint256",
          "name": "timestamp",
          "type": "uint256"
        }
      ],
      "name": "UserLoggedIn",
      "type": "event"
    },
    {
      "anonymous": false,
      "inputs": [
        {
          "indexed": true,
          "internalType": "address",
          "name": "userAddress",
          "type": "address"
        },
        {
          "indexed": false,
          "internalType": "string",
          "name": "role",
          "type": "string"
        }
      ],
      "name": "UserRegistered",
      "type": "event"
    },
    {
      "inputs": [
        {
          "internalType": "address",
          "name": "",
          "type": "address"
        },
        {
          "internalType": "uint256",
          "name": "",
          "type": "uint256"
        }
      ],
      "name": "doctorPatients",
      "outputs": [
        {
          "internalType": "address",
          "name": "",
          "type": "address"
        }
      ],
      "stateMutability": "view",
      "type": "function",
      "constant": true
    },
    {
      "inputs": [],
      "name": "owner",
      "outputs": [
        {
          "internalType": "address",
          "name": "",
          "type": "address"
        }
      ],
      "stateMutability": "view",
      "type": "function",
      "constant": true
    },
    {
      "inputs": [
        {
          "internalType": "address",
          "name": "",
          "type": "address"
        }
      ],
      "name": "patientRecords",
      "outputs": [
        {
          "internalType": "string",
          "name": "patientId",
          "type": "string"
        },
        {
          "internalType": "string",
          "name": "patientName",
          "type": "string"
        },
        {
          "internalType": "uint256",
          "name": "age",
          "type": "uint256"
        },
        {
          "internalType": "string",
          "name": "gender",
          "type": "string"
        },
        {
          "internalType": "string",
          "name": "clinicalDescription",
          "type": "string"
        },
        {
          "internalType": "string",
          "name": "disease",
          "type": "string"
        },
        {
          "internalType": "uint256",
          "name": "timestamp",
          "type": "uint256"
        },
        {
          "internalType": "address",
          "name": "doctorAddress",
          "type": "address"
        },
        {
          "internalType": "bool",
          "name": "isActive",
          "type": "bool"
        }
      ],
      "stateMutability": "view",
      "type": "function",
      "constant": true
    },
    {
      "inputs": [
        {
          "internalType": "address",
          "name": "",
          "type": "address"
        }
      ],
      "name": "pendingTwoFactorAuth",
      "outputs": [
        {
          "internalType": "bool",
          "name": "",
          "type": "bool"
        }
      ],
      "stateMutability": "view",
      "type": "function",
      "constant": true
    },
    {
      "inputs": [
        {
          "internalType": "address",
          "name": "",
          "type": "address"
        }
      ],
      "name": "users",
      "outputs": [
        {
          "internalType": "bool",
          "name": "isRegistered",
          "type": "bool"
        },
        {
          "internalType": "string",
          "name": "role",
          "type": "string"
        },
        {
          "internalType": "uint256",
          "name": "lastLogin",
          "type": "uint256"
        },
        {
          "internalType": "bool",
          "name": "is2FAEnabled",
          "type": "bool"
        },
        {
          "internalType": "bytes32",
          "name": "twoFactorSecret",
          "type": "bytes32"
        },
        {
          "internalType": "uint256",
          "name": "lastTOTPTimestamp",
          "type": "uint256"
        }
      ],
      "stateMutability": "view",
      "type": "function",
      "constant": true
    },
    {
      "inputs": [
        {
          "internalType": "address",
          "name": "_userAddress",
          "type": "address"
        },
        {
          "internalType": "string",
          "name": "_role",
          "type": "string"
        }
      ],
      "name": "registerUser",
      "outputs": [],
      "stateMutability": "nonpayable",
      "type": "function"
    },
    {
      "inputs": [
        {
          "internalType": "address",
          "name": "_doctorAddress",
          "type": "address"
        }
      ],
      "name": "registerDoctor",
      "outputs": [],
      "stateMutability": "nonpayable",
      "type": "function"
    },
    {
      "inputs": [
        {
          "internalType": "bytes32",
          "name": "_hashedSecret",
          "type": "bytes32"
        }
      ],
      "name": "enable2FA",
      "outputs": [],
      "stateMutability": "nonpayable",
      "type": "function"
    },
    {
      "inputs": [],
      "name": "initiateLogin",
      "outputs": [],
      "stateMutability": "nonpayable",
      "type": "function"
    },
    {
      "inputs": [
        {
          "internalType": "string",
          "name": "_code",
          "type": "string"
        }
      ],
      "name": "complete2FALogin",
      "outputs": [],
      "stateMutability": "nonpayable",
      "type": "function"
    },
    {
      "inputs": [
        {
          "internalType": "address",
          "name": "_userAddress",
          "type": "address"
        }
      ],
      "name": "isUserRegistered",
      "outputs": [
        {
          "internalType": "bool",
          "name": "",
          "type": "bool"
        }
      ],
      "stateMutability": "view",
      "type": "function",
      "constant": true
    },
    {
      "inputs": [
        {
          "internalType": "address",
          "name": "_userAddress",
          "type": "address"
        }
      ],
      "name": "getUserRole",
      "outputs": [
        {
          "internalType": "string",
          "name": "",
          "type": "string"
        }
      ],
      "stateMutability": "view",
      "type": "function",
      "constant": true
    },
    {
      "inputs": [
        {
          "internalType": "address",
          "name": "_userAddress",
          "type": "address"
        }
      ],
      "name": "is2FAEnabled",
      "outputs": [
        {
          "internalType": "bool",
          "name": "",
          "type": "bool"
        }
      ],
      "stateMutability": "view",
      "type": "function",
      "constant": true
    },
    {
      "inputs": [],
      "name": "disable2FA",
      "outputs": [],
      "stateMutability": "nonpayable",
      "type": "function"
    },
    {
      "inputs": [
        {
          "internalType": "string",
          "name": "_patientId",
          "type": "string"
        },
        {
          "internalType": "string",
          "name": "_patientName",
          "type": "string"
        },
        {
          "internalType": "uint256",
          "name": "_age",
          "type": "uint256"
        },
        {
          "internalType": "string",
          "name": "_gender",
          "type": "string"
        },
        {
          "internalType": "string",
          "name": "_clinicalDescription",
          "type": "string"
        },
        {
          "internalType": "string",
          "name": "_disease",
          "type": "string"
        }
      ],
      "name": "registerPatientRecord",
      "outputs": [],
      "stateMutability": "nonpayable",
      "type": "function"
    }
  ],
  "bytecode": "0x60806040523480156200001157600080fd5b5033600260006101000a81548173ffffffffffffffffffffffffffffffffffffffff021916908373ffffffffffffffffffffffffffffffffffffffff1602179055506040518060c001604052806001151581526020016040518060400160405280600581526020017f61646d696e0000000000000000000000000000000000000000000000000000008152508152602001600081526020016000151581526020016000801b815260200160008152506000803373ffffffffffffffffffffffffffffffffffffffff1673ffffffffffffffffffffffffffffffffffffffff16815260200190815260200160002060008201518160000160006101000a81548160ff02191690831515021790555060208201518160010190805190602001906200013c92919062000184565b506040820151816002015560608201518160030160006101000a81548160ff0219169083151502179055506080820151816004015560a0820151816005015590505062000299565b828054620001929062000234565b90600052602060002090601f016020900481019282620001b6576000855562000202565b82601f10620001d157805160ff191683800117855562000202565b8280016001018555821562000202579182015b8281111562000201578251825591602001919060010190620001e4565b5b50905062000211919062000215565b5090565b5b808211156200023057600081600090555060010162000216565b5090565b600060028204905060018216806200024d57607f821691505b602082108114156200026457620002636200026a565b5b50919050565b7f4e487b7100000000000000000000000000000000000000000000000000000000600052602260045260246000fd5b612bbd80620002a96000396000f3fe608060405234801561001057600080fd5b50600436106100f55760003560e01c80634ac9e3001161009757806371f1ad621161006657806371f1ad621461029c578063869c072f146102a65780638da5cb5b146102c2578063a87430ba146102e0576100f5565b80634ac9e300146102045780635c3f280d146102345780635c60b1e414610250578063699ca99814610280576100f5565b806317cb6a2e116100d357806317cb6a2e14610162578063200a1b911461016c57806327820851146101a45780633f13e26f146101d4576100f5565b80630399a8b9146100fa5780630ea126f914610116578063163f752214610132575b600080fd5b610114600480360381019061010f9190612017565b610315565b005b610130600480360381019061012b9190611f5e565b610637565b005b61014c60048036038101906101479190611f35565b610aa3565b60405161015991906125cb565b60405180910390f35b61016a610afb565b005b61018660048036038101906101819190611f35565b610d03565b60405161019b99989796959493929190612670565b60405180910390f35b6101be60048036038101906101b99190611f35565b611026565b6040516101cb919061264e565b60405180910390f35b6101ee60048036038101906101e99190611f35565b611187565b6040516101fb91906125cb565b60405180910390f35b61021e60048036038101906102199190611fb2565b6111a7565b60405161022b91906125b0565b60405180910390f35b61024e60048036038101906102499190612058565b6111f5565b005b61026a60048036038101906102659190611f35565b611620565b60405161027791906125cb565b60405180910390f35b61029a60048036038101906102959190611f35565b611678565b005b6102a461190f565b005b6102c060048036038101906102bb9190611fee565b611ae4565b005b6102ca611ce7565b6040516102d791906125b0565b60405180910390f35b6102fa60048036038101906102f59190611f35565b611d0d565b60405161030c969594939291906125e6565b60405180910390f35b600160003373ffffffffffffffffffffffffffffffffffffffff1673ffffffffffffffffffffffffffffffffffffffff16815260200190815260200160002060009054906101000a900460ff166103a1576040517f08c379a0000000000000000000000000000000000000000000000000000000008152600401610398906128b0565b60405180910390fd5b6000803373ffffffffffffffffffffffffffffffffffffffff1673ffffffffffffffffffffffffffffffffffffffff16815260200190815260200160002060030160009054906101000a900460ff1661042f576040517f08c379a000000000000000000000000000000000000000000000000000000000815260040161042690612790565b60405180910390fd5b6006815114610473576040517f08c379a000000000000000000000000000000000000000000000000000000000815260040161046a906127b0565b60405180910390fd5b601e6000803373ffffffffffffffffffffffffffffffffffffffff1673ffffffffffffffffffffffffffffffffffffffff168152602001908152602001600020600501546104c19190612988565b4211610502576040517f08c379a00000000000000000000000000000000000000000000000000000000081526004016104f990612830565b60405180910390fd5b426000803373ffffffffffffffffffffffffffffffffffffffff1673ffffffffffffffffffffffffffffffffffffffff168152602001908152602001600020600501819055506000600160003373ffffffffffffffffffffffffffffffffffffffff1673ffffffffffffffffffffffffffffffffffffffff16815260200190815260200160002060006101000a81548160ff021916908315150217905550426000803373ffffffffffffffffffffffffffffffffffffffff1673ffffffffffffffffffffffffffffffffffffffff168152602001908152602001600020600201819055503373ffffffffffffffffffffffffffffffffffffffff167fd48e107b75fb4263f47c6775f9695146041b81f4e0eac8b4d6075fd5756cba944260405161062c91906128d0565b60405180910390a250565b6000803373ffffffffffffffffffffffffffffffffffffffff1673ffffffffffffffffffffffffffffffffffffffff16815260200190815260200160002060000160009054906101000a900460ff1680156107bd57506040518060400160405280600581526020017f61646d696e000000000000000000000000000000000000000000000000000000815250805190602001206000803373ffffffffffffffffffffffffffffffffffffffff1673ffffffffffffffffffffffffffffffffffffffff1681526020019081526020016000206001016040516107189190612599565b604051809103902014806107bc57506040518060400160405280600681526020017f646f63746f720000000000000000000000000000000000000000000000000000815250805190602001206000803373ffffffffffffffffffffffffffffffffffffffff1673ffffffffffffffffffffffffffffffffffffffff1681526020019081526020016000206001016040516107b29190612599565b6040518091039020145b5b6107fc576040517f08c379a00000000000000000000000000000000000000000000000000000000081526004016107f390612850565b60405180910390fd5b6000808373ffffffffffffffffffffffffffffffffffffffff1673ffffffffffffffffffffffffffffffffffffffff16815260200190815260200160002060000160009054906101000a900460ff161561088b576040517f08c379a000000000000000000000000000000000000000000000000000000000815260040161088290612810565b60405180910390fd5b6040518060400160405280600781526020017f70617469656e7400000000000000000000000000000000000000000000000000815250805190602001208180519060200120148061091e57506040518060400160405280600681526020017f646f63746f720000000000000000000000000000000000000000000000000000815250805190602001208180519060200120145b61095d576040517f08c379a0000000000000000000000000000000000000000000000000000000008152600401610954906127f0565b60405180910390fd5b6040518060c00160405280600115158152602001828152602001600081526020016000151581526020016000801b815260200160008152506000808473ffffffffffffffffffffffffffffffffffffffff1673ffffffffffffffffffffffffffffffffffffffff16815260200190815260200160002060008201518160000160006101000a81548160ff0219169083151502179055506020820151816001019080519060200190610a0f929190611deb565b506040820151816002015560608201518160030160006101000a81548160ff0219169083151502179055506080820151816004015560a082015181600501559050508173ffffffffffffffffffffffffffffffffffffffff167f48cac28ad4dc618e15f4c2dd5e97751182f166de97b25618318b2112aa951a2f82604051610a97919061264e565b60405180910390a25050565b60008060008373ffffffffffffffffffffffffffffffffffffffff1673ffffffffffffffffffffffffffffffffffffffff16815260200190815260200160002060000160009054906101000a900460ff169050919050565b6000803373ffffffffffffffffffffffffffffffffffffffff1673ffffffffffffffffffffffffffffffffffffffff16815260200190815260200160002060000160009054906101000a900460ff16610b89576040517f08c379a0000000000000000000000000000000000000000000000000000000008152600401610b8090612750565b60405180910390fd5b6000803373ffffffffffffffffffffffffffffffffffffffff1673ffffffffffffffffffffffffffffffffffffffff16815260200190815260200160002060030160009054906101000a900460ff16610c17576040517f08c379a0000000000000000000000000000000000000000000000000000000008152600401610c0e90612790565b60405180910390fd5b60008060003373ffffffffffffffffffffffffffffffffffffffff1673ffffffffffffffffffffffffffffffffffffffff16815260200190815260200160002060030160006101000a81548160ff0219169083151502179055506000801b6000803373ffffffffffffffffffffffffffffffffffffffff1673ffffffffffffffffffffffffffffffffffffffff1681526020019081526020016000206004018190555060008060003373ffffffffffffffffffffffffffffffffffffffff1673ffffffffffffffffffffffffffffffffffffffff16815260200190815260200160002060050181905550565b6003602052806000526040600020600091509050806000018054610d2690612a72565b80601f0160208091040260200160405190810160405280929190818152602001828054610d5290612a72565b8015610d9f5780601f10610d7457610100808354040283529160200191610d9f565b820191906000526020600020905b815481529060010190602001808311610d8257829003601f168201915b505050505090806001018054610db490612a72565b80601f0160208091040260200160405190810160405280929190818152602001828054610de090612a72565b8015610e2d5780601f10610e0257610100808354040283529160200191610e2d565b820191906000526020600020905b815481529060010190602001808311610e1057829003601f168201915b505050505090806002015490806003018054610e4890612a72565b80601f0160208091040260200160405190810160405280929190818152602001828054610e7490612a72565b8015610ec15780601f10610e9657610100808354040283529160200191610ec1565b820191906000526020600020905b815481529060010190602001808311610ea457829003601f168201915b505050505090806004018054610ed690612a72565b80601f0160208091040260200160405190810160405280929190818152602001828054610f0290612a72565b8015610f4f5780601f10610f2457610100808354040283529160200191610f4f565b820191906000526020600020905b815481529060010190602001808311610f3257829003601f168201915b505050505090806005018054610f6490612a72565b80601f0160208091040260200160405190810160405280929190818152602001828054610f9090612a72565b8015610fdd5780601f10610fb257610100808354040283529160200191610fdd565b820191906000526020600020905b815481529060010190602001808311610fc057829003601f168201915b5050505050908060060154908060070160009054906101000a900473ffffffffffffffffffffffffffffffffffffffff16908060070160149054906101000a900460ff16905089565b60606000808373ffffffffffffffffffffffffffffffffffffffff1673ffffffffffffffffffffffffffffffffffffffff16815260200190815260200160002060000160009054906101000a900460ff166110b6576040517f08c379a00000000000000000000000000000000000000000000000000000000081526004016110ad90612750565b60405180910390fd5b6000808373ffffffffffffffffffffffffffffffffffffffff1673ffffffffffffffffffffffffffffffffffffffff168152602001908152602001600020600101805461110290612a72565b80601f016020809104026020016040519081016040528092919081815260200182805461112e90612a72565b801561117b5780601f106111505761010080835404028352916020019161117b565b820191906000526020600020905b81548152906001019060200180831161115e57829003601f168201915b50505050509050919050565b60016020528060005260406000206000915054906101000a900460ff1681565b600460205281600052604060002081815481106111c357600080fd5b906000526020600020016000915091509054906101000a900473ffffffffffffffffffffffffffffffffffffffff1681565b6040518060400160405280600681526020017f646f63746f720000000000000000000000000000000000000000000000000000815250805190602001206000803373ffffffffffffffffffffffffffffffffffffffff1673ffffffffffffffffffffffffffffffffffffffff1681526020019081526020016000206001016040516112809190612599565b6040518091039020148061132457506040518060400160405280600581526020017f61646d696e000000000000000000000000000000000000000000000000000000815250805190602001206000803373ffffffffffffffffffffffffffffffffffffffff1673ffffffffffffffffffffffffffffffffffffffff16815260200190815260200160002060010160405161131a9190612599565b6040518091039020145b611363576040517f08c379a000000000000000000000000000000000000000000000000000000000815260040161135a906127d0565b60405180910390fd5b60006040518061012001604052808881526020018781526020018681526020018581526020018481526020018381526020014281526020013373ffffffffffffffffffffffffffffffffffffffff16815260200160011515815250905080600360003373ffffffffffffffffffffffffffffffffffffffff1673ffffffffffffffffffffffffffffffffffffffff168152602001908152602001600020600082015181600001908051906020019061141c929190611deb565b506020820151816001019080519060200190611439929190611deb565b50604082015181600201556060820151816003019080519060200190611460929190611deb565b50608082015181600401908051906020019061147d929190611deb565b5060a082015181600501908051906020019061149a929190611deb565b5060c0820151816006015560e08201518160070160006101000a81548173ffffffffffffffffffffffffffffffffffffffff021916908373ffffffffffffffffffffffffffffffffffffffff1602179055506101008201518160070160146101000a81548160ff021916908315150217905550905050600460003373ffffffffffffffffffffffffffffffffffffffff1673ffffffffffffffffffffffffffffffffffffffff168152602001908152602001600020339080600181540180825580915050600190039060005260206000200160009091909190916101000a81548173ffffffffffffffffffffffffffffffffffffffff021916908373ffffffffffffffffffffffffffffffffffffffff1602179055503373ffffffffffffffffffffffffffffffffffffffff163373ffffffffffffffffffffffffffffffffffffffff167fff956cfb4420c5712b356cdaf7414c13077cf8c26b6c352120c85795bf3258f3894260405161160f929190612720565b60405180910390a350505050505050565b60008060008373ffffffffffffffffffffffffffffffffffffffff1673ffffffffffffffffffffffffffffffffffffffff16815260200190815260200160002060030160009054906101000a900460ff169050919050565b600260009054906101000a900473ffffffffffffffffffffffffffffffffffffffff1673ffffffffffffffffffffffffffffffffffffffff163373ffffffffffffffffffffffffffffffffffffffff1614611708576040517f08c379a00000000000000000000000000000000000000000000000000000000081526004016116ff90612890565b60405180910390fd5b6000808273ffffffffffffffffffffffffffffffffffffffff1673ffffffffffffffffffffffffffffffffffffffff16815260200190815260200160002060000160009054906101000a900460ff1615611797576040517f08c379a000000000000000000000000000000000000000000000000000000000815260040161178e90612810565b60405180910390fd5b6040518060c001604052806001151581526020016040518060400160405280600681526020017f646f63746f7200000000000000000000000000000000000000000000000000008152508152602001600081526020016000151581526020016000801b815260200160008152506000808373ffffffffffffffffffffffffffffffffffffffff1673ffffffffffffffffffffffffffffffffffffffff16815260200190815260200160002060008201518160000160006101000a81548160ff021916908315150217905550602082015181600101908051906020019061187e929190611deb565b506040820151816002015560608201518160030160006101000a81548160ff0219169083151502179055506080820151816004015560a082015181600501559050508073ffffffffffffffffffffffffffffffffffffffff167f48cac28ad4dc618e15f4c2dd5e97751182f166de97b25618318b2112aa951a2f60405161190490612870565b60405180910390a250565b6000803373ffffffffffffffffffffffffffffffffffffffff1673ffffffffffffffffffffffffffffffffffffffff16815260200190815260200160002060000160009054906101000a900460ff1661199d576040517f08c379a000000000000000000000000000000000000000000000000000000000815260040161199490612750565b60405180910390fd5b6000803373ffffffffffffffffffffffffffffffffffffffff1673ffffffffffffffffffffffffffffffffffffffff16815260200190815260200160002060030160009054906101000a900460ff1615611a4d5760018060003373ffffffffffffffffffffffffffffffffffffffff1673ffffffffffffffffffffffffffffffffffffffff16815260200190815260200160002060006101000a81548160ff021916908315150217905550611ae2565b426000803373ffffffffffffffffffffffffffffffffffffffff1673ffffffffffffffffffffffffffffffffffffffff168152602001908152602001600020600201819055503373ffffffffffffffffffffffffffffffffffffffff167fd48e107b75fb4263f47c6775f9695146041b81f4e0eac8b4d6075fd5756cba9442604051611ad991906128d0565b60405180910390a25b565b6000803373ffffffffffffffffffffffffffffffffffffffff1673ffffffffffffffffffffffffffffffffffffffff16815260200190815260200160002060000160009054906101000a900460ff16611b72576040517f08c379a0000000000000000000000000000000000000000000000000000000008152600401611b6990612750565b60405180910390fd5b6000803373ffffffffffffffffffffffffffffffffffffffff1673ffffffffffffffffffffffffffffffffffffffff16815260200190815260200160002060030160009054906101000a900460ff1615611c01576040517f08c379a0000000000000000000000000000000000000000000000000000000008152600401611bf890612770565b60405180910390fd5b60016000803373ffffffffffffffffffffffffffffffffffffffff1673ffffffffffffffffffffffffffffffffffffffff16815260200190815260200160002060030160006101000a81548160ff021916908315150217905550806000803373ffffffffffffffffffffffffffffffffffffffff1673ffffffffffffffffffffffffffffffffffffffff168152602001908152602001600020600401819055503373ffffffffffffffffffffffffffffffffffffffff167f4b31ed05a4d8ce9de4f9d476a272179c7af15d7fddd9adaaea416ab9e799edeb60405160405180910390a250565b600260009054906101000a900473ffffffffffffffffffffffffffffffffffffffff1681565b60006020528060005260406000206000915090508060000160009054906101000a900460ff1690806001018054611d4390612a72565b80601f0160208091040260200160405190810160405280929190818152602001828054611d6f90612a72565b8015611dbc5780601f10611d9157610100808354040283529160200191611dbc565b820191906000526020600020905b815481529060010190602001808311611d9f57829003601f168201915b5050505050908060020154908060030160009054906101000a900460ff16908060040154908060050154905086565b828054611df790612a72565b90600052602060002090601f016020900481019282611e195760008555611e60565b82601f10611e3257805160ff1916838001178555611e60565b82800160010185558215611e60579182015b82811115611e5f578251825591602001919060010190611e44565b5b509050611e6d9190611e71565b5090565b5b80821115611e8a576000816000905550600101611e72565b5090565b6000611ea1611e9c8461291c565b6128eb565b905082815260208101848484011115611eb957600080fd5b611ec4848285612a30565b509392505050565b600081359050611edb81612b42565b92915050565b600081359050611ef081612b59565b92915050565b600082601f830112611f0757600080fd5b8135611f17848260208601611e8e565b91505092915050565b600081359050611f2f81612b70565b92915050565b600060208284031215611f4757600080fd5b6000611f5584828501611ecc565b91505092915050565b60008060408385031215611f7157600080fd5b6000611f7f85828601611ecc565b925050602083013567ffffffffffffffff811115611f9c57600080fd5b611fa885828601611ef6565b9150509250929050565b60008060408385031215611fc557600080fd5b6000611fd385828601611ecc565b9250506020611fe485828601611f20565b9150509250929050565b60006020828403121561200057600080fd5b600061200e84828501611ee1565b91505092915050565b60006020828403121561202957600080fd5b600082013567ffffffffffffffff81111561204357600080fd5b61204f84828501611ef6565b91505092915050565b60008060008060008060c0878903121561207157600080fd5b600087013567ffffffffffffffff81111561208b57600080fd5b61209789828a01611ef6565b965050602087013567ffffffffffffffff8111156120b457600080fd5b6120c089828a01611ef6565b95505060406120d189828a01611f20565b945050606087013567ffffffffffffffff8111156120ee57600080fd5b6120fa89828a01611ef6565b935050608087013567ffffffffffffffff81111561211757600080fd5b61212389828a01611ef6565b92505060a087013567ffffffffffffffff81111561214057600080fd5b61214c89828a01611ef6565b9150509295509295509295565b612162816129de565b82525050565b612171816129f0565b82525050565b612180816129fc565b82525050565b6000815461219381612a72565b61219d818661296c565b945060018216600081146121b857600181146121c9576121fc565b60ff198316865281860193506121fc565b6121d28561294c565b60005b838110156121f4578154818901526001820191506020810190506121d5565b838801955050505b50505092915050565b600061221082612961565b61221a8185612977565b935061222a818560208601612a3f565b61223381612b31565b840191505092915050565b600061224b601383612977565b91507f55736572206e6f742072656769737465726564000000000000000000000000006000830152602082019050919050565b600061228b601383612977565b91507f32464120616c726561647920656e61626c6564000000000000000000000000006000830152602082019050919050565b60006122cb600f83612977565b91507f324641206e6f7420656e61626c656400000000000000000000000000000000006000830152602082019050919050565b600061230b601383612977565b91507f496e76616c696420636f6465206c656e677468000000000000000000000000006000830152602082019050919050565b600061234b602c83612977565b91507f4f6e6c7920646f63746f7273206f722061646d696e732063616e20726567697360008301527f7465722070617469656e747300000000000000000000000000000000000000006020830152604082019050919050565b60006123b1600c83612977565b91507f496e76616c696420726f6c6500000000000000000000000000000000000000006000830152602082019050919050565b60006123f1601783612977565b91507f5573657220616c726561647920726567697374657265640000000000000000006000830152602082019050919050565b6000612431601183612977565b91507f436f646520616c726561647920757365640000000000000000000000000000006000830152602082019050919050565b6000612471602283612977565b91507f4f6e6c792061646d696e206f7220646f63746f722063616e2063616c6c20746860008301527f69730000000000000000000000000000000000000000000000000000000000006020830152604082019050919050565b60006124d7600683612977565b91507f646f63746f7200000000000000000000000000000000000000000000000000006000830152602082019050919050565b6000612517601883612977565b91507f4f6e6c79206f776e65722063616e2063616c6c207468697300000000000000006000830152602082019050919050565b6000612557601483612977565b91507f4e6f2070656e64696e6720324641206c6f67696e0000000000000000000000006000830152602082019050919050565b61259381612a26565b82525050565b60006125a58284612186565b915081905092915050565b60006020820190506125c56000830184612159565b92915050565b60006020820190506125e06000830184612168565b92915050565b600060c0820190506125fb6000830189612168565b818103602083015261260d8188612205565b905061261c604083018761258a565b6126296060830186612168565b6126366080830185612177565b61264360a083018461258a565b979650505050505050565b600060208201905081810360008301526126688184612205565b905092915050565b600061012082019050818103600083015261268b818c612205565b9050818103602083015261269f818b612205565b90506126ae604083018a61258a565b81810360608301526126c08189612205565b905081810360808301526126d48188612205565b905081810360a08301526126e88187612205565b90506126f760c083018661258a565b61270460e0830185612159565b612712610100830184612168565b9a9950505050505050505050565b6000604082019050818103600083015261273a8185612205565b9050612749602083018461258a565b9392505050565b600060208201905081810360008301526127698161223e565b9050919050565b600060208201905081810360008301526127898161227e565b9050919050565b600060208201905081810360008301526127a9816122be565b9050919050565b600060208201905081810360008301526127c9816122fe565b9050919050565b600060208201905081810360008301526127e98161233e565b9050919050565b60006020820190508181036000830152612809816123a4565b9050919050565b60006020820190508181036000830152612829816123e4565b9050919050565b6000602082019050818103600083015261284981612424565b9050919050565b6000602082019050818103600083015261286981612464565b9050919050565b60006020820190508181036000830152612889816124ca565b9050919050565b600060208201905081810360008301526128a98161250a565b9050919050565b600060208201905081810360008301526128c98161254a565b9050919050565b60006020820190506128e5600083018461258a565b92915050565b6000604051905081810181811067ffffffffffffffff8211171561291257612911612b02565b5b8060405250919050565b600067ffffffffffffffff82111561293757612936612b02565b5b601f19601f8301169050602081019050919050565b60008190508160005260206000209050919050565b600081519050919050565b600081905092915050565b600082825260208201905092915050565b600061299382612a26565b915061299e83612a26565b9250827fffffffffffffffffffffffffffffffffffffffffffffffffffffffffffffffff038211156129d3576129d2612aa4565b5b828201905092915050565b60006129e982612a06565b9050919050565b60008115159050919050565b6000819050919050565b600073ffffffffffffffffffffffffffffffffffffffff82169050919050565b6000819050919050565b82818337600083830152505050565b60005b83811015612a5d578082015181840152602081019050612a42565b83811115612a6c576000848401525b50505050565b60006002820490506001821680612a8a57607f821691505b60208210811415612a9e57612a9d612ad3565b5b50919050565b7f4e487b7100000000000000000000000000000000000000000000000000000000600052601160045260246000fd5b7f4e487b7100000000000000000000000000000000000000000000000000000000600052602260045260246000fd5b7f4e487b7100000000000000000000000000000000000000000000000000000000600052604160045260246000fd5b6000601f19601f8301169050919050565b612b4b816129de565b8114612b5657600080fd5b50565b612b62816129fc565b8114612b6d57600080fd5b50565b612b7981612a26565b8114612b8457600080fd5b5056fea2646970667358221220ea76579802aa398a0ffa175411bea1fda84178b09ea7dd50c293f065c05e628664736f6c63430008000033",
  "immutableReferences": {},
  "source": "// SPDX-License-Identifier: MIT\npragma solidity ^0.8.0;\n\ncontract Authentication {\n    struct User {\n        bool isRegistered;\n        string role;\n        uint256 lastLogin;\n        bool is2FAEnabled;\n        bytes32 twoFactorSecret;\n        uint256 lastTOTPTimestamp;\n    }\n    \n    mapping(address => User) public users;\n    mapping(address => bool) public pendingTwoFactorAuth;\n    address public owner;\n    \n    event UserRegistered(address indexed userAddress, string role);\n    event UserLoggedIn(address indexed userAddress, uint256 timestamp);\n    event TwoFactorEnabled(address indexed userAddress);\n    event PatientRecordCreated(\n        address indexed patientAddress,\n        string patientId,\n        address indexed doctorAddress,\n        uint256 timestamp\n    );\n    \n    modifier onlyOwner() {\n        require(msg.sender == owner, \"Only owner can call this\");\n        _;\n    }\n    \n    modifier onlyAdminOrDoctor() {\n        require(\n            users[msg.sender].isRegistered && \n            (keccak256(bytes(users[msg.sender].role)) == keccak256(bytes(\"admin\")) ||\n             keccak256(bytes(users[msg.sender].role)) == keccak256(bytes(\"doctor\"))),\n            \"Only admin or doctor can call this\"\n        );\n        _;\n    }\n    \n    constructor() {\n        owner = msg.sender;\n        // Register owner as admin\n        users[msg.sender] = User({\n            isRegistered: true,\n            role: \"admin\",\n            lastLogin: 0,\n            is2FAEnabled: false,\n            twoFactorSecret: bytes32(0),\n            lastTOTPTimestamp: 0\n        });\n    }\n    \n    // Only admin/doctor can register new users\n    function registerUser(address _userAddress, string memory _role) public onlyAdminOrDoctor {\n        require(!users[_userAddress].isRegistered, \"User already registered\");\n        require(\n            keccak256(bytes(_role)) == keccak256(bytes(\"patient\")) ||\n            keccak256(bytes(_role)) == keccak256(bytes(\"doctor\")),\n            \"Invalid role\"\n        );\n        \n        users[_userAddress] = User({\n            isRegistered: true,\n            role: _role,\n            lastLogin: 0,\n            is2FAEnabled: false,\n            twoFactorSecret: bytes32(0),\n            lastTOTPTimestamp: 0\n        });\n        \n        emit UserRegistered(_userAddress, _role);\n    }\n    \n    // Only owner can register doctors/admins\n    function registerDoctor(address _doctorAddress) public onlyOwner {\n        require(!users[_doctorAddress].isRegistered, \"User already registered\");\n        \n        users[_doctorAddress] = User({\n            isRegistered: true,\n            role: \"doctor\",\n            lastLogin: 0,\n            is2FAEnabled: false,\n            twoFactorSecret: bytes32(0),\n            lastTOTPTimestamp: 0\n        });\n        \n        emit UserRegistered(_doctorAddress, \"doctor\");\n    }\n    \n    function enable2FA(bytes32 _hashedSecret) public {\n        require(users[msg.sender].isRegistered, \"User not registered\");\n        require(!users[msg.sender].is2FAEnabled, \"2FA already enabled\");\n        \n        users[msg.sender].is2FAEnabled = true;\n        users[msg.sender].twoFactorSecret = _hashedSecret;\n        \n        emit TwoFactorEnabled(msg.sender);\n    }\n    \n    function initiateLogin() public {\n        require(users[msg.sender].isRegistered, \"User not registered\");\n        if (users[msg.sender].is2FAEnabled) {\n            pendingTwoFactorAuth[msg.sender] = true;\n        } else {\n            users[msg.sender].lastLogin = block.timestamp;\n            emit UserLoggedIn(msg.sender, block.timestamp);\n        }\n    }\n    \n    function complete2FALogin(string memory _code) public {\n        require(pendingTwoFactorAuth[msg.sender], \"No pending 2FA login\");\n        require(users[msg.sender].is2FAEnabled, \"2FA not enabled\");\n        \n        require(bytes(_code).length == 6, \"Invalid code length\");\n        require(block.timestamp > users[msg.sender].lastTOTPTimestamp + 30, \"Code already used\");\n        \n        users[msg.sender].lastTOTPTimestamp = block.timestamp;\n        pendingTwoFactorAuth[msg.sender] = false;\n        users[msg.sender].lastLogin = block.timestamp;\n        emit UserLoggedIn(msg.sender, block.timestamp);\n    }\n    \n    function isUserRegistered(address _userAddress) public view returns (bool) {\n        return users[_userAddress].isRegistered;\n    }\n    \n    function getUserRole(address _userAddress) public view returns (string memory) {\n        require(users[_userAddress].isRegistered, \"User not registered\");\n        return users[_userAddress].role;\n    }\n    \n    function is2FAEnabled(address _userAddress) public view returns (bool) {\n        return users[_userAddress].is2FAEnabled;\n    }\n    \n    function disable2FA() public {\n        require(users[msg.sender].isRegistered, \"User not registered\");\n        require(users[msg.sender].is2FAEnabled, \"2FA not enabled\");\n        \n        users[msg.sender].is2FAEnabled = false;\n        users[msg.sender].twoFactorSecret = bytes32(0);\n        users[msg.sender].lastTOTPTimestamp = 0;\n    }\n    \n    struct PatientRecord {\n        string patientId;\n        string patientName;\n        uint256 age;\n        string gender;\n        string clinicalDescription;\n        string disease;\n        uint256 timestamp;\n        address doctorAddress;\n        bool isActive;\n    }\n    \n    mapping(address => PatientRecord) public patientRecords;\n    mapping(address => address[]) public doctorPatients;  // doctor -> their patients\n    \n    function registerPatientRecord(\n        string memory _patientId,\n        string memory _patientName,\n        uint256 _age,\n        string memory _gender,\n        string memory _clinicalDescription,\n        string memory _disease\n    ) public {\n        require(\n            keccak256(bytes(users[msg.sender].role)) == keccak256(bytes(\"doctor\")) ||\n            keccak256(bytes(users[msg.sender].role)) == keccak256(bytes(\"admin\")),\n            \"Only doctors or admins can register patients\"\n        );\n\n        PatientRecord memory newRecord = PatientRecord({\n            patientId: _patientId,\n            patientName: _patientName,\n            age: _age,\n            gender: _gender,\n            clinicalDescription: _clinicalDescription,\n            disease: _disease,\n            timestamp: block.timestamp,\n            doctorAddress: msg.sender,\n            isActive: true\n        });\n\n        patientRecords[msg.sender] = newRecord;\n        doctorPatients[msg.sender].push(msg.sender);\n\n        emit PatientRecordCreated(msg.sender, _patientId, msg.sender, block.timestamp);\n    }\n} ",
  "sourcePath": "/Users/tharushkadinujaya/Developer/ZKPhealth/contracts/Authentication.sol",
  "compiler": {
    "name": "solc",
    "version": "0.8.0+commit.c7dfd78e.Emscripten.clang"
  },
  "schemaVersion": "3.4.16",
  "updatedAt": "2024-11-24T10:23:20.999Z",
  "networkType": "ethereum",
  "devdoc": {
    "kind": "dev",
    "methods": {},
    "version": 1
  },
  "userdoc": {
    "kind": "user",
    "methods": {},
    "version": 1
  }
}