{
  "contractName": "Authentication",
  "abi": [
    {
      "inputs": [],
      "stateMutability": "nonpayable",
      "type": "constructor"
    },
    {
      "anonymous": false,
      "inputs": [
        {
          "indexed": true,
          "internalType": "address",
          "name": "patientAddress",
          "type": "address"
        },
        {
          "indexed": false,
          "internalType": "string",
          "name": "patientId",
          "type": "string"
        },
        {
          "indexed": true,
          "internalType": "address",
          "name": "doctorAddress",
          "type": "address"
        },
        {
          "indexed": false,
          "internalType": "uint256",
          "name": "timestamp",
          "type": "uint256"
        }
      ],
      "name": "PatientRecordCreated",
      "type": "event"
    },
    {
      "anonymous": false,
      "inputs": [
        {
          "indexed": true,
          "internalType": "address",
          "name": "userAddress",
          "type": "address"
        }
      ],
      "name": "TwoFactorEnabled",
      "type": "event"
    },
    {
      "anonymous": false,
      "inputs": [
        {
          "indexed": true,
          "internalType": "address",
          "name": "userAddress",
          "type": "address"
        },
        {
          "indexed": false,
          "internalType": "uint256",
          "name": "timestamp",
          "type": "uint256"
        }
      ],
      "name": "UserLoggedIn",
      "type": "event"
    },
    {
      "anonymous": false,
      "inputs": [
        {
          "indexed": true,
          "internalType": "address",
          "name": "userAddress",
          "type": "address"
        },
        {
          "indexed": false,
          "internalType": "string",
          "name": "role",
          "type": "string"
        }
      ],
      "name": "UserRegistered",
      "type": "event"
    },
    {
      "inputs": [
        {
          "internalType": "address",
          "name": "",
          "type": "address"
        },
        {
          "internalType": "uint256",
          "name": "",
          "type": "uint256"
        }
      ],
      "name": "doctorPatients",
      "outputs": [
        {
          "internalType": "address",
          "name": "",
          "type": "address"
        }
      ],
      "stateMutability": "view",
      "type": "function"
    },
    {
      "inputs": [],
      "name": "owner",
      "outputs": [
        {
          "internalType": "address",
          "name": "",
          "type": "address"
        }
      ],
      "stateMutability": "view",
      "type": "function"
    },
    {
      "inputs": [
        {
          "internalType": "address",
          "name": "",
          "type": "address"
        }
      ],
      "name": "patientRecords",
      "outputs": [
        {
          "internalType": "string",
          "name": "patientId",
          "type": "string"
        },
        {
          "internalType": "string",
          "name": "patientName",
          "type": "string"
        },
        {
          "internalType": "uint256",
          "name": "age",
          "type": "uint256"
        },
        {
          "internalType": "string",
          "name": "gender",
          "type": "string"
        },
        {
          "internalType": "string",
          "name": "clinicalDescription",
          "type": "string"
        },
        {
          "internalType": "string",
          "name": "disease",
          "type": "string"
        },
        {
          "internalType": "uint256",
          "name": "timestamp",
          "type": "uint256"
        },
        {
          "internalType": "address",
          "name": "doctorAddress",
          "type": "address"
        },
        {
          "internalType": "bool",
          "name": "isActive",
          "type": "bool"
        }
      ],
      "stateMutability": "view",
      "type": "function"
    },
    {
      "inputs": [
        {
          "internalType": "address",
          "name": "",
          "type": "address"
        }
      ],
      "name": "pendingTwoFactorAuth",
      "outputs": [
        {
          "internalType": "bool",
          "name": "",
          "type": "bool"
        }
      ],
      "stateMutability": "view",
      "type": "function"
    },
    {
      "inputs": [
        {
          "internalType": "address",
          "name": "",
          "type": "address"
        }
      ],
      "name": "users",
      "outputs": [
        {
          "internalType": "bool",
          "name": "isRegistered",
          "type": "bool"
        },
        {
          "internalType": "string",
          "name": "role",
          "type": "string"
        },
        {
          "internalType": "uint256",
          "name": "lastLogin",
          "type": "uint256"
        },
        {
          "internalType": "bool",
          "name": "is2FAEnabled",
          "type": "bool"
        },
        {
          "internalType": "bytes32",
          "name": "twoFactorSecret",
          "type": "bytes32"
        },
        {
          "internalType": "uint256",
          "name": "lastTOTPTimestamp",
          "type": "uint256"
        }
      ],
      "stateMutability": "view",
      "type": "function"
    },
    {
      "inputs": [
        {
          "internalType": "address",
          "name": "_userAddress",
          "type": "address"
        },
        {
          "internalType": "string",
          "name": "_role",
          "type": "string"
        }
      ],
      "name": "registerUser",
      "outputs": [],
      "stateMutability": "nonpayable",
      "type": "function"
    },
    {
      "inputs": [
        {
          "internalType": "address",
          "name": "_doctorAddress",
          "type": "address"
        }
      ],
      "name": "registerDoctor",
      "outputs": [],
      "stateMutability": "nonpayable",
      "type": "function"
    },
    {
      "inputs": [
        {
          "internalType": "bytes32",
          "name": "_hashedSecret",
          "type": "bytes32"
        }
      ],
      "name": "enable2FA",
      "outputs": [],
      "stateMutability": "nonpayable",
      "type": "function"
    },
    {
      "inputs": [],
      "name": "initiateLogin",
      "outputs": [],
      "stateMutability": "nonpayable",
      "type": "function"
    },
    {
      "inputs": [
        {
          "internalType": "string",
          "name": "_code",
          "type": "string"
        }
      ],
      "name": "complete2FALogin",
      "outputs": [],
      "stateMutability": "nonpayable",
      "type": "function"
    },
    {
      "inputs": [
        {
          "internalType": "address",
          "name": "_userAddress",
          "type": "address"
        }
      ],
      "name": "isUserRegistered",
      "outputs": [
        {
          "internalType": "bool",
          "name": "",
          "type": "bool"
        }
      ],
      "stateMutability": "view",
      "type": "function"
    },
    {
      "inputs": [
        {
          "internalType": "address",
          "name": "_userAddress",
          "type": "address"
        }
      ],
      "name": "getUserRole",
      "outputs": [
        {
          "internalType": "string",
          "name": "",
          "type": "string"
        }
      ],
      "stateMutability": "view",
      "type": "function"
    },
    {
      "inputs": [
        {
          "internalType": "address",
          "name": "_userAddress",
          "type": "address"
        }
      ],
      "name": "is2FAEnabled",
      "outputs": [
        {
          "internalType": "bool",
          "name": "",
          "type": "bool"
        }
      ],
      "stateMutability": "view",
      "type": "function"
    },
    {
      "inputs": [],
      "name": "disable2FA",
      "outputs": [],
      "stateMutability": "nonpayable",
      "type": "function"
    },
    {
      "inputs": [
        {
          "internalType": "string",
          "name": "_patientId",
          "type": "string"
        },
        {
          "internalType": "string",
          "name": "_patientName",
          "type": "string"
        },
        {
          "internalType": "uint256",
          "name": "_age",
          "type": "uint256"
        },
        {
          "internalType": "string",
          "name": "_gender",
          "type": "string"
        },
        {
          "internalType": "string",
          "name": "_clinicalDescription",
          "type": "string"
        },
        {
          "internalType": "string",
          "name": "_disease",
          "type": "string"
        }
      ],
      "name": "registerPatientRecord",
      "outputs": [],
      "stateMutability": "nonpayable",
      "type": "function"
    }
  ],
  "bytecode": "0x60806040523480156200001157600080fd5b5033600260006101000a81548173ffffffffffffffffffffffffffffffffffffffff021916908373ffffffffffffffffffffffffffffffffffffffff1602179055506040518060c001604052806001151581526020016040518060400160405280600581526020017f61646d696e0000000000000000000000000000000000000000000000000000008152508152602001600081526020016000151581526020016000801b815260200160008152506000803373ffffffffffffffffffffffffffffffffffffffff1673ffffffffffffffffffffffffffffffffffffffff16815260200190815260200160002060008201518160000160006101000a81548160ff02191690831515021790555060208201518160010190805190602001906200013c92919062000184565b506040820151816002015560608201518160030160006101000a81548160ff0219169083151502179055506080820151816004015560a0820151816005015590505062000299565b828054620001929062000234565b90600052602060002090601f016020900481019282620001b6576000855562000202565b82601f10620001d157805160ff191683800117855562000202565b8280016001018555821562000202579182015b8281111562000201578251825591602001919060010190620001e4565b5b50905062000211919062000215565b5090565b5b808211156200023057600081600090555060010162000216565b5090565b600060028204905060018216806200024d57607f821691505b602082108114156200026457620002636200026a565b5b50919050565b7f4e487b7100000000000000000000000000000000000000000000000000000000600052602260045260246000fd5b612c0a80620002a96000396000f3fe608060405234801561001057600080fd5b50600436106100f55760003560e01c80634ac9e3001161009757806371f1ad621161006657806371f1ad621461029c578063869c072f146102a65780638da5cb5b146102c2578063a87430ba146102e0576100f5565b80634ac9e300146102045780635c3f280d146102345780635c60b1e414610250578063699ca99814610280576100f5565b806317cb6a2e116100d357806317cb6a2e14610162578063200a1b911461016c57806327820851146101a45780633f13e26f146101d4576100f5565b80630399a8b9146100fa5780630ea126f914610116578063163f752214610132575b600080fd5b610114600480360381019061010f9190612064565b610315565b005b610130600480360381019061012b9190611fab565b610637565b005b61014c60048036038101906101479190611f82565b610af0565b6040516101599190612618565b60405180910390f35b61016a610b48565b005b61018660048036038101906101819190611f82565b610d50565b60405161019b999897969594939291906126bd565b60405180910390f35b6101be60048036038101906101b99190611f82565b611073565b6040516101cb919061269b565b60405180910390f35b6101ee60048036038101906101e99190611f82565b6111d4565b6040516101fb9190612618565b60405180910390f35b61021e60048036038101906102199190611fff565b6111f4565b60405161022b91906125fd565b60405180910390f35b61024e600480360381019061024991906120a5565b611242565b005b61026a60048036038101906102659190611f82565b61166d565b6040516102779190612618565b60405180910390f35b61029a60048036038101906102959190611f82565b6116c5565b005b6102a461195c565b005b6102c060048036038101906102bb919061203b565b611b31565b005b6102ca611d34565b6040516102d791906125fd565b60405180910390f35b6102fa60048036038101906102f59190611f82565b611d5a565b60405161030c96959493929190612633565b60405180910390f35b600160003373ffffffffffffffffffffffffffffffffffffffff1673ffffffffffffffffffffffffffffffffffffffff16815260200190815260200160002060009054906101000a900460ff166103a1576040517f08c379a0000000000000000000000000000000000000000000000000000000008152600401610398906128fd565b60405180910390fd5b6000803373ffffffffffffffffffffffffffffffffffffffff1673ffffffffffffffffffffffffffffffffffffffff16815260200190815260200160002060030160009054906101000a900460ff1661042f576040517f08c379a0000000000000000000000000000000000000000000000000000000008152600401610426906127dd565b60405180910390fd5b6006815114610473576040517f08c379a000000000000000000000000000000000000000000000000000000000815260040161046a906127fd565b60405180910390fd5b601e6000803373ffffffffffffffffffffffffffffffffffffffff1673ffffffffffffffffffffffffffffffffffffffff168152602001908152602001600020600501546104c191906129d5565b4211610502576040517f08c379a00000000000000000000000000000000000000000000000000000000081526004016104f99061287d565b60405180910390fd5b426000803373ffffffffffffffffffffffffffffffffffffffff1673ffffffffffffffffffffffffffffffffffffffff168152602001908152602001600020600501819055506000600160003373ffffffffffffffffffffffffffffffffffffffff1673ffffffffffffffffffffffffffffffffffffffff16815260200190815260200160002060006101000a81548160ff021916908315150217905550426000803373ffffffffffffffffffffffffffffffffffffffff1673ffffffffffffffffffffffffffffffffffffffff168152602001908152602001600020600201819055503373ffffffffffffffffffffffffffffffffffffffff167fd48e107b75fb4263f47c6775f9695146041b81f4e0eac8b4d6075fd5756cba944260405161062c919061291d565b60405180910390a250565b6000803373ffffffffffffffffffffffffffffffffffffffff1673ffffffffffffffffffffffffffffffffffffffff16815260200190815260200160002060000160009054906101000a900460ff1680156107bd57506040518060400160405280600581526020017f61646d696e000000000000000000000000000000000000000000000000000000815250805190602001206000803373ffffffffffffffffffffffffffffffffffffffff1673ffffffffffffffffffffffffffffffffffffffff16815260200190815260200160002060010160405161071891906125e6565b604051809103902014806107bc57506040518060400160405280600681526020017f646f63746f720000000000000000000000000000000000000000000000000000815250805190602001206000803373ffffffffffffffffffffffffffffffffffffffff1673ffffffffffffffffffffffffffffffffffffffff1681526020019081526020016000206001016040516107b291906125e6565b6040518091039020145b5b6107fc576040517f08c379a00000000000000000000000000000000000000000000000000000000081526004016107f39061289d565b60405180910390fd5b6000808373ffffffffffffffffffffffffffffffffffffffff1673ffffffffffffffffffffffffffffffffffffffff16815260200190815260200160002060000160009054906101000a900460ff161561088b576040517f08c379a00000000000000000000000000000000000000000000000000000000081526004016108829061285d565b60405180910390fd5b6040518060400160405280600781526020017f70617469656e7400000000000000000000000000000000000000000000000000815250805190602001208180519060200120148061091e57506040518060400160405280600681526020017f646f63746f720000000000000000000000000000000000000000000000000000815250805190602001208180519060200120145b8061096b57506040518060400160405280600981526020017f696e737572616e63650000000000000000000000000000000000000000000000815250805190602001208180519060200120145b6109aa576040517f08c379a00000000000000000000000000000000000000000000000000000000081526004016109a19061283d565b60405180910390fd5b6040518060c00160405280600115158152602001828152602001600081526020016000151581526020016000801b815260200160008152506000808473ffffffffffffffffffffffffffffffffffffffff1673ffffffffffffffffffffffffffffffffffffffff16815260200190815260200160002060008201518160000160006101000a81548160ff0219169083151502179055506020820151816001019080519060200190610a5c929190611e38565b506040820151816002015560608201518160030160006101000a81548160ff0219169083151502179055506080820151816004015560a082015181600501559050508173ffffffffffffffffffffffffffffffffffffffff167f48cac28ad4dc618e15f4c2dd5e97751182f166de97b25618318b2112aa951a2f82604051610ae4919061269b565b60405180910390a25050565b60008060008373ffffffffffffffffffffffffffffffffffffffff1673ffffffffffffffffffffffffffffffffffffffff16815260200190815260200160002060000160009054906101000a900460ff169050919050565b6000803373ffffffffffffffffffffffffffffffffffffffff1673ffffffffffffffffffffffffffffffffffffffff16815260200190815260200160002060000160009054906101000a900460ff16610bd6576040517f08c379a0000000000000000000000000000000000000000000000000000000008152600401610bcd9061279d565b60405180910390fd5b6000803373ffffffffffffffffffffffffffffffffffffffff1673ffffffffffffffffffffffffffffffffffffffff16815260200190815260200160002060030160009054906101000a900460ff16610c64576040517f08c379a0000000000000000000000000000000000000000000000000000000008152600401610c5b906127dd565b60405180910390fd5b60008060003373ffffffffffffffffffffffffffffffffffffffff1673ffffffffffffffffffffffffffffffffffffffff16815260200190815260200160002060030160006101000a81548160ff0219169083151502179055506000801b6000803373ffffffffffffffffffffffffffffffffffffffff1673ffffffffffffffffffffffffffffffffffffffff1681526020019081526020016000206004018190555060008060003373ffffffffffffffffffffffffffffffffffffffff1673ffffffffffffffffffffffffffffffffffffffff16815260200190815260200160002060050181905550565b6003602052806000526040600020600091509050806000018054610d7390612abf565b80601f0160208091040260200160405190810160405280929190818152602001828054610d9f90612abf565b8015610dec5780601f10610dc157610100808354040283529160200191610dec565b820191906000526020600020905b815481529060010190602001808311610dcf57829003601f168201915b505050505090806001018054610e0190612abf565b80601f0160208091040260200160405190810160405280929190818152602001828054610e2d90612abf565b8015610e7a5780601f10610e4f57610100808354040283529160200191610e7a565b820191906000526020600020905b815481529060010190602001808311610e5d57829003601f168201915b505050505090806002015490806003018054610e9590612abf565b80601f0160208091040260200160405190810160405280929190818152602001828054610ec190612abf565b8015610f0e5780601f10610ee357610100808354040283529160200191610f0e565b820191906000526020600020905b815481529060010190602001808311610ef157829003601f168201915b505050505090806004018054610f2390612abf565b80601f0160208091040260200160405190810160405280929190818152602001828054610f4f90612abf565b8015610f9c5780601f10610f7157610100808354040283529160200191610f9c565b820191906000526020600020905b815481529060010190602001808311610f7f57829003601f168201915b505050505090806005018054610fb190612abf565b80601f0160208091040260200160405190810160405280929190818152602001828054610fdd90612abf565b801561102a5780601f10610fff5761010080835404028352916020019161102a565b820191906000526020600020905b81548152906001019060200180831161100d57829003601f168201915b5050505050908060060154908060070160009054906101000a900473ffffffffffffffffffffffffffffffffffffffff16908060070160149054906101000a900460ff16905089565b60606000808373ffffffffffffffffffffffffffffffffffffffff1673ffffffffffffffffffffffffffffffffffffffff16815260200190815260200160002060000160009054906101000a900460ff16611103576040517f08c379a00000000000000000000000000000000000000000000000000000000081526004016110fa9061279d565b60405180910390fd5b6000808373ffffffffffffffffffffffffffffffffffffffff1673ffffffffffffffffffffffffffffffffffffffff168152602001908152602001600020600101805461114f90612abf565b80601f016020809104026020016040519081016040528092919081815260200182805461117b90612abf565b80156111c85780601f1061119d576101008083540402835291602001916111c8565b820191906000526020600020905b8154815290600101906020018083116111ab57829003601f168201915b50505050509050919050565b60016020528060005260406000206000915054906101000a900460ff1681565b6004602052816000526040600020818154811061121057600080fd5b906000526020600020016000915091509054906101000a900473ffffffffffffffffffffffffffffffffffffffff1681565b6040518060400160405280600681526020017f646f63746f720000000000000000000000000000000000000000000000000000815250805190602001206000803373ffffffffffffffffffffffffffffffffffffffff1673ffffffffffffffffffffffffffffffffffffffff1681526020019081526020016000206001016040516112cd91906125e6565b6040518091039020148061137157506040518060400160405280600581526020017f61646d696e000000000000000000000000000000000000000000000000000000815250805190602001206000803373ffffffffffffffffffffffffffffffffffffffff1673ffffffffffffffffffffffffffffffffffffffff16815260200190815260200160002060010160405161136791906125e6565b6040518091039020145b6113b0576040517f08c379a00000000000000000000000000000000000000000000000000000000081526004016113a79061281d565b60405180910390fd5b60006040518061012001604052808881526020018781526020018681526020018581526020018481526020018381526020014281526020013373ffffffffffffffffffffffffffffffffffffffff16815260200160011515815250905080600360003373ffffffffffffffffffffffffffffffffffffffff1673ffffffffffffffffffffffffffffffffffffffff1681526020019081526020016000206000820151816000019080519060200190611469929190611e38565b506020820151816001019080519060200190611486929190611e38565b506040820151816002015560608201518160030190805190602001906114ad929190611e38565b5060808201518160040190805190602001906114ca929190611e38565b5060a08201518160050190805190602001906114e7929190611e38565b5060c0820151816006015560e08201518160070160006101000a81548173ffffffffffffffffffffffffffffffffffffffff021916908373ffffffffffffffffffffffffffffffffffffffff1602179055506101008201518160070160146101000a81548160ff021916908315150217905550905050600460003373ffffffffffffffffffffffffffffffffffffffff1673ffffffffffffffffffffffffffffffffffffffff168152602001908152602001600020339080600181540180825580915050600190039060005260206000200160009091909190916101000a81548173ffffffffffffffffffffffffffffffffffffffff021916908373ffffffffffffffffffffffffffffffffffffffff1602179055503373ffffffffffffffffffffffffffffffffffffffff163373ffffffffffffffffffffffffffffffffffffffff167fff956cfb4420c5712b356cdaf7414c13077cf8c26b6c352120c85795bf3258f3894260405161165c92919061276d565b60405180910390a350505050505050565b60008060008373ffffffffffffffffffffffffffffffffffffffff1673ffffffffffffffffffffffffffffffffffffffff16815260200190815260200160002060030160009054906101000a900460ff169050919050565b600260009054906101000a900473ffffffffffffffffffffffffffffffffffffffff1673ffffffffffffffffffffffffffffffffffffffff163373ffffffffffffffffffffffffffffffffffffffff1614611755576040517f08c379a000000000000000000000000000000000000000000000000000000000815260040161174c906128dd565b60405180910390fd5b6000808273ffffffffffffffffffffffffffffffffffffffff1673ffffffffffffffffffffffffffffffffffffffff16815260200190815260200160002060000160009054906101000a900460ff16156117e4576040517f08c379a00000000000000000000000000000000000000000000000000000000081526004016117db9061285d565b60405180910390fd5b6040518060c001604052806001151581526020016040518060400160405280600681526020017f646f63746f7200000000000000000000000000000000000000000000000000008152508152602001600081526020016000151581526020016000801b815260200160008152506000808373ffffffffffffffffffffffffffffffffffffffff1673ffffffffffffffffffffffffffffffffffffffff16815260200190815260200160002060008201518160000160006101000a81548160ff02191690831515021790555060208201518160010190805190602001906118cb929190611e38565b506040820151816002015560608201518160030160006101000a81548160ff0219169083151502179055506080820151816004015560a082015181600501559050508073ffffffffffffffffffffffffffffffffffffffff167f48cac28ad4dc618e15f4c2dd5e97751182f166de97b25618318b2112aa951a2f604051611951906128bd565b60405180910390a250565b6000803373ffffffffffffffffffffffffffffffffffffffff1673ffffffffffffffffffffffffffffffffffffffff16815260200190815260200160002060000160009054906101000a900460ff166119ea576040517f08c379a00000000000000000000000000000000000000000000000000000000081526004016119e19061279d565b60405180910390fd5b6000803373ffffffffffffffffffffffffffffffffffffffff1673ffffffffffffffffffffffffffffffffffffffff16815260200190815260200160002060030160009054906101000a900460ff1615611a9a5760018060003373ffffffffffffffffffffffffffffffffffffffff1673ffffffffffffffffffffffffffffffffffffffff16815260200190815260200160002060006101000a81548160ff021916908315150217905550611b2f565b426000803373ffffffffffffffffffffffffffffffffffffffff1673ffffffffffffffffffffffffffffffffffffffff168152602001908152602001600020600201819055503373ffffffffffffffffffffffffffffffffffffffff167fd48e107b75fb4263f47c6775f9695146041b81f4e0eac8b4d6075fd5756cba9442604051611b26919061291d565b60405180910390a25b565b6000803373ffffffffffffffffffffffffffffffffffffffff1673ffffffffffffffffffffffffffffffffffffffff16815260200190815260200160002060000160009054906101000a900460ff16611bbf576040517f08c379a0000000000000000000000000000000000000000000000000000000008152600401611bb69061279d565b60405180910390fd5b6000803373ffffffffffffffffffffffffffffffffffffffff1673ffffffffffffffffffffffffffffffffffffffff16815260200190815260200160002060030160009054906101000a900460ff1615611c4e576040517f08c379a0000000000000000000000000000000000000000000000000000000008152600401611c45906127bd565b60405180910390fd5b60016000803373ffffffffffffffffffffffffffffffffffffffff1673ffffffffffffffffffffffffffffffffffffffff16815260200190815260200160002060030160006101000a81548160ff021916908315150217905550806000803373ffffffffffffffffffffffffffffffffffffffff1673ffffffffffffffffffffffffffffffffffffffff168152602001908152602001600020600401819055503373ffffffffffffffffffffffffffffffffffffffff167f4b31ed05a4d8ce9de4f9d476a272179c7af15d7fddd9adaaea416ab9e799edeb60405160405180910390a250565b600260009054906101000a900473ffffffffffffffffffffffffffffffffffffffff1681565b60006020528060005260406000206000915090508060000160009054906101000a900460ff1690806001018054611d9090612abf565b80601f0160208091040260200160405190810160405280929190818152602001828054611dbc90612abf565b8015611e095780601f10611dde57610100808354040283529160200191611e09565b820191906000526020600020905b815481529060010190602001808311611dec57829003601f168201915b5050505050908060020154908060030160009054906101000a900460ff16908060040154908060050154905086565b828054611e4490612abf565b90600052602060002090601f016020900481019282611e665760008555611ead565b82601f10611e7f57805160ff1916838001178555611ead565b82800160010185558215611ead579182015b82811115611eac578251825591602001919060010190611e91565b5b509050611eba9190611ebe565b5090565b5b80821115611ed7576000816000905550600101611ebf565b5090565b6000611eee611ee984612969565b612938565b905082815260208101848484011115611f0657600080fd5b611f11848285612a7d565b509392505050565b600081359050611f2881612b8f565b92915050565b600081359050611f3d81612ba6565b92915050565b600082601f830112611f5457600080fd5b8135611f64848260208601611edb565b91505092915050565b600081359050611f7c81612bbd565b92915050565b600060208284031215611f9457600080fd5b6000611fa284828501611f19565b91505092915050565b60008060408385031215611fbe57600080fd5b6000611fcc85828601611f19565b925050602083013567ffffffffffffffff811115611fe957600080fd5b611ff585828601611f43565b9150509250929050565b6000806040838503121561201257600080fd5b600061202085828601611f19565b925050602061203185828601611f6d565b9150509250929050565b60006020828403121561204d57600080fd5b600061205b84828501611f2e565b91505092915050565b60006020828403121561207657600080fd5b600082013567ffffffffffffffff81111561209057600080fd5b61209c84828501611f43565b91505092915050565b60008060008060008060c087890312156120be57600080fd5b600087013567ffffffffffffffff8111156120d857600080fd5b6120e489828a01611f43565b965050602087013567ffffffffffffffff81111561210157600080fd5b61210d89828a01611f43565b955050604061211e89828a01611f6d565b945050606087013567ffffffffffffffff81111561213b57600080fd5b61214789828a01611f43565b935050608087013567ffffffffffffffff81111561216457600080fd5b61217089828a01611f43565b92505060a087013567ffffffffffffffff81111561218d57600080fd5b61219989828a01611f43565b9150509295509295509295565b6121af81612a2b565b82525050565b6121be81612a3d565b82525050565b6121cd81612a49565b82525050565b600081546121e081612abf565b6121ea81866129b9565b94506001821660008114612205576001811461221657612249565b60ff19831686528186019350612249565b61221f85612999565b60005b8381101561224157815481890152600182019150602081019050612222565b838801955050505b50505092915050565b600061225d826129ae565b61226781856129c4565b9350612277818560208601612a8c565b61228081612b7e565b840191505092915050565b60006122986013836129c4565b91507f55736572206e6f742072656769737465726564000000000000000000000000006000830152602082019050919050565b60006122d86013836129c4565b91507f32464120616c726561647920656e61626c6564000000000000000000000000006000830152602082019050919050565b6000612318600f836129c4565b91507f324641206e6f7420656e61626c656400000000000000000000000000000000006000830152602082019050919050565b60006123586013836129c4565b91507f496e76616c696420636f6465206c656e677468000000000000000000000000006000830152602082019050919050565b6000612398602c836129c4565b91507f4f6e6c7920646f63746f7273206f722061646d696e732063616e20726567697360008301527f7465722070617469656e747300000000000000000000000000000000000000006020830152604082019050919050565b60006123fe600c836129c4565b91507f496e76616c696420726f6c6500000000000000000000000000000000000000006000830152602082019050919050565b600061243e6017836129c4565b91507f5573657220616c726561647920726567697374657265640000000000000000006000830152602082019050919050565b600061247e6011836129c4565b91507f436f646520616c726561647920757365640000000000000000000000000000006000830152602082019050919050565b60006124be6022836129c4565b91507f4f6e6c792061646d696e206f7220646f63746f722063616e2063616c6c20746860008301527f69730000000000000000000000000000000000000000000000000000000000006020830152604082019050919050565b60006125246006836129c4565b91507f646f63746f7200000000000000000000000000000000000000000000000000006000830152602082019050919050565b60006125646018836129c4565b91507f4f6e6c79206f776e65722063616e2063616c6c207468697300000000000000006000830152602082019050919050565b60006125a46014836129c4565b91507f4e6f2070656e64696e6720324641206c6f67696e0000000000000000000000006000830152602082019050919050565b6125e081612a73565b82525050565b60006125f282846121d3565b915081905092915050565b600060208201905061261260008301846121a6565b92915050565b600060208201905061262d60008301846121b5565b92915050565b600060c08201905061264860008301896121b5565b818103602083015261265a8188612252565b905061266960408301876125d7565b61267660608301866121b5565b61268360808301856121c4565b61269060a08301846125d7565b979650505050505050565b600060208201905081810360008301526126b58184612252565b905092915050565b60006101208201905081810360008301526126d8818c612252565b905081810360208301526126ec818b612252565b90506126fb604083018a6125d7565b818103606083015261270d8189612252565b905081810360808301526127218188612252565b905081810360a08301526127358187612252565b905061274460c08301866125d7565b61275160e08301856121a6565b61275f6101008301846121b5565b9a9950505050505050505050565b600060408201905081810360008301526127878185612252565b905061279660208301846125d7565b9392505050565b600060208201905081810360008301526127b68161228b565b9050919050565b600060208201905081810360008301526127d6816122cb565b9050919050565b600060208201905081810360008301526127f68161230b565b9050919050565b600060208201905081810360008301526128168161234b565b9050919050565b600060208201905081810360008301526128368161238b565b9050919050565b60006020820190508181036000830152612856816123f1565b9050919050565b6000602082019050818103600083015261287681612431565b9050919050565b6000602082019050818103600083015261289681612471565b9050919050565b600060208201905081810360008301526128b6816124b1565b9050919050565b600060208201905081810360008301526128d681612517565b9050919050565b600060208201905081810360008301526128f681612557565b9050919050565b6000602082019050818103600083015261291681612597565b9050919050565b600060208201905061293260008301846125d7565b92915050565b6000604051905081810181811067ffffffffffffffff8211171561295f5761295e612b4f565b5b8060405250919050565b600067ffffffffffffffff82111561298457612983612b4f565b5b601f19601f8301169050602081019050919050565b60008190508160005260206000209050919050565b600081519050919050565b600081905092915050565b600082825260208201905092915050565b60006129e082612a73565b91506129eb83612a73565b9250827fffffffffffffffffffffffffffffffffffffffffffffffffffffffffffffffff03821115612a2057612a1f612af1565b5b828201905092915050565b6000612a3682612a53565b9050919050565b60008115159050919050565b6000819050919050565b600073ffffffffffffffffffffffffffffffffffffffff82169050919050565b6000819050919050565b82818337600083830152505050565b60005b83811015612aaa578082015181840152602081019050612a8f565b83811115612ab9576000848401525b50505050565b60006002820490506001821680612ad757607f821691505b60208210811415612aeb57612aea612b20565b5b50919050565b7f4e487b7100000000000000000000000000000000000000000000000000000000600052601160045260246000fd5b7f4e487b7100000000000000000000000000000000000000000000000000000000600052602260045260246000fd5b7f4e487b7100000000000000000000000000000000000000000000000000000000600052604160045260246000fd5b6000601f19601f8301169050919050565b612b9881612a2b565b8114612ba357600080fd5b50565b612baf81612a49565b8114612bba57600080fd5b50565b612bc681612a73565b8114612bd157600080fd5b5056fea2646970667358221220f416248fbd3335482f0ff0ea9ed9f831bfffbf7f8c8b9ed5f989bec1f3777d0f64736f6c63430008000033",
  "immutableReferences": {},
  "source": "// SPDX-License-Identifier: MIT\npragma solidity ^0.8.0;\n\ncontract Authentication {\n    struct User {\n        bool isRegistered;\n        string role;\n        uint256 lastLogin;\n        bool is2FAEnabled;\n        bytes32 twoFactorSecret;\n        uint256 lastTOTPTimestamp;\n    }\n    \n    mapping(address => User) public users;\n    mapping(address => bool) public pendingTwoFactorAuth;\n    address public owner;\n    \n    event UserRegistered(address indexed userAddress, string role);\n    event UserLoggedIn(address indexed userAddress, uint256 timestamp);\n    event TwoFactorEnabled(address indexed userAddress);\n    event PatientRecordCreated(\n        address indexed patientAddress,\n        string patientId,\n        address indexed doctorAddress,\n        uint256 timestamp\n    );\n    \n    modifier onlyOwner() {\n        require(msg.sender == owner, \"Only owner can call this\");\n        _;\n    }\n    \n    modifier onlyAdminOrDoctor() {\n        require(\n            users[msg.sender].isRegistered && \n            (keccak256(bytes(users[msg.sender].role)) == keccak256(bytes(\"admin\")) ||\n             keccak256(bytes(users[msg.sender].role)) == keccak256(bytes(\"doctor\"))),\n            \"Only admin or doctor can call this\"\n        );\n        _;\n    }\n    \n    constructor() {\n        owner = msg.sender;\n        // Register owner as admin\n        users[msg.sender] = User({\n            isRegistered: true,\n            role: \"admin\",\n            lastLogin: 0,\n            is2FAEnabled: false,\n            twoFactorSecret: bytes32(0),\n            lastTOTPTimestamp: 0\n        });\n    }\n    \n    // Only admin/doctor can register new users\n    function registerUser(address _userAddress, string memory _role) public onlyAdminOrDoctor {\n        require(!users[_userAddress].isRegistered, \"User already registered\");\n        require(\n            keccak256(bytes(_role)) == keccak256(bytes(\"patient\")) ||\n            keccak256(bytes(_role)) == keccak256(bytes(\"doctor\")) ||\n            keccak256(bytes(_role)) == keccak256(bytes(\"insurance\")),\n            \"Invalid role\"\n        );\n        \n        users[_userAddress] = User({\n            isRegistered: true,\n            role: _role,\n            lastLogin: 0,\n            is2FAEnabled: false,\n            twoFactorSecret: bytes32(0),\n            lastTOTPTimestamp: 0\n        });\n        \n        emit UserRegistered(_userAddress, _role);\n    }\n    \n    // Only owner can register doctors/admins\n    function registerDoctor(address _doctorAddress) public onlyOwner {\n        require(!users[_doctorAddress].isRegistered, \"User already registered\");\n        \n        users[_doctorAddress] = User({\n            isRegistered: true,\n            role: \"doctor\",\n            lastLogin: 0,\n            is2FAEnabled: false,\n            twoFactorSecret: bytes32(0),\n            lastTOTPTimestamp: 0\n        });\n        \n        emit UserRegistered(_doctorAddress, \"doctor\");\n    }\n    \n    function enable2FA(bytes32 _hashedSecret) public {\n        require(users[msg.sender].isRegistered, \"User not registered\");\n        require(!users[msg.sender].is2FAEnabled, \"2FA already enabled\");\n        \n        users[msg.sender].is2FAEnabled = true;\n        users[msg.sender].twoFactorSecret = _hashedSecret;\n        \n        emit TwoFactorEnabled(msg.sender);\n    }\n    \n    function initiateLogin() public {\n        require(users[msg.sender].isRegistered, \"User not registered\");\n        if (users[msg.sender].is2FAEnabled) {\n            pendingTwoFactorAuth[msg.sender] = true;\n        } else {\n            users[msg.sender].lastLogin = block.timestamp;\n            emit UserLoggedIn(msg.sender, block.timestamp);\n        }\n    }\n    \n    function complete2FALogin(string memory _code) public {\n        require(pendingTwoFactorAuth[msg.sender], \"No pending 2FA login\");\n        require(users[msg.sender].is2FAEnabled, \"2FA not enabled\");\n        \n        require(bytes(_code).length == 6, \"Invalid code length\");\n        require(block.timestamp > users[msg.sender].lastTOTPTimestamp + 30, \"Code already used\");\n        \n        users[msg.sender].lastTOTPTimestamp = block.timestamp;\n        pendingTwoFactorAuth[msg.sender] = false;\n        users[msg.sender].lastLogin = block.timestamp;\n        emit UserLoggedIn(msg.sender, block.timestamp);\n    }\n    \n    function isUserRegistered(address _userAddress) public view returns (bool) {\n        return users[_userAddress].isRegistered;\n    }\n    \n    function getUserRole(address _userAddress) public view returns (string memory) {\n        require(users[_userAddress].isRegistered, \"User not registered\");\n        return users[_userAddress].role;\n    }\n    \n    function is2FAEnabled(address _userAddress) public view returns (bool) {\n        return users[_userAddress].is2FAEnabled;\n    }\n    \n    function disable2FA() public {\n        require(users[msg.sender].isRegistered, \"User not registered\");\n        require(users[msg.sender].is2FAEnabled, \"2FA not enabled\");\n        \n        users[msg.sender].is2FAEnabled = false;\n        users[msg.sender].twoFactorSecret = bytes32(0);\n        users[msg.sender].lastTOTPTimestamp = 0;\n    }\n    \n    struct PatientRecord {\n        string patientId;\n        string patientName;\n        uint256 age;\n        string gender;\n        string clinicalDescription;\n        string disease;\n        uint256 timestamp;\n        address doctorAddress;\n        bool isActive;\n    }\n    \n    mapping(address => PatientRecord) public patientRecords;\n    mapping(address => address[]) public doctorPatients;  // doctor -> their patients\n    \n    function registerPatientRecord(\n        string memory _patientId,\n        string memory _patientName,\n        uint256 _age,\n        string memory _gender,\n        string memory _clinicalDescription,\n        string memory _disease\n    ) public {\n        require(\n            keccak256(bytes(users[msg.sender].role)) == keccak256(bytes(\"doctor\")) ||\n            keccak256(bytes(users[msg.sender].role)) == keccak256(bytes(\"admin\")),\n            \"Only doctors or admins can register patients\"\n        );\n\n        PatientRecord memory newRecord = PatientRecord({\n            patientId: _patientId,\n            patientName: _patientName,\n            age: _age,\n            gender: _gender,\n            clinicalDescription: _clinicalDescription,\n            disease: _disease,\n            timestamp: block.timestamp,\n            doctorAddress: msg.sender,\n            isActive: true\n        });\n\n        patientRecords[msg.sender] = newRecord;\n        doctorPatients[msg.sender].push(msg.sender);\n\n        emit PatientRecordCreated(msg.sender, _patientId, msg.sender, block.timestamp);\n    }\n} ",
  "sourcePath": "D:\\ZKPhealth\\contracts\\Authentication.sol",
  "compiler": {
    "name": "solc",
    "version": "0.8.0+commit.c7dfd78e.Emscripten.clang"
  },
  "schemaVersion": "3.4.16",
  "updatedAt": "2024-11-25T13:23:37.156Z",
  "devdoc": {
    "kind": "dev",
    "methods": {},
    "version": 1
  },
  "userdoc": {
    "kind": "user",
    "methods": {},
    "version": 1
  }
}