{
  "contractName": "Authentication",
  "abi": [
    {
      "inputs": [],
      "stateMutability": "nonpayable",
      "type": "constructor"
    },
    {
      "anonymous": false,
      "inputs": [
        {
          "indexed": true,
          "internalType": "address",
          "name": "userAddress",
          "type": "address"
        }
      ],
      "name": "TwoFactorEnabled",
      "type": "event"
    },
    {
      "anonymous": false,
      "inputs": [
        {
          "indexed": true,
          "internalType": "address",
          "name": "userAddress",
          "type": "address"
        },
        {
          "indexed": false,
          "internalType": "uint256",
          "name": "timestamp",
          "type": "uint256"
        }
      ],
      "name": "UserLoggedIn",
      "type": "event"
    },
    {
      "anonymous": false,
      "inputs": [
        {
          "indexed": true,
          "internalType": "address",
          "name": "userAddress",
          "type": "address"
        },
        {
          "indexed": false,
          "internalType": "string",
          "name": "role",
          "type": "string"
        }
      ],
      "name": "UserRegistered",
      "type": "event"
    },
    {
      "inputs": [],
      "name": "owner",
      "outputs": [
        {
          "internalType": "address",
          "name": "",
          "type": "address"
        }
      ],
      "stateMutability": "view",
      "type": "function",
      "constant": true
    },
    {
      "inputs": [
        {
          "internalType": "address",
          "name": "",
          "type": "address"
        }
      ],
      "name": "pendingTwoFactorAuth",
      "outputs": [
        {
          "internalType": "bool",
          "name": "",
          "type": "bool"
        }
      ],
      "stateMutability": "view",
      "type": "function",
      "constant": true
    },
    {
      "inputs": [
        {
          "internalType": "address",
          "name": "",
          "type": "address"
        }
      ],
      "name": "users",
      "outputs": [
        {
          "internalType": "bool",
          "name": "isRegistered",
          "type": "bool"
        },
        {
          "internalType": "string",
          "name": "role",
          "type": "string"
        },
        {
          "internalType": "uint256",
          "name": "lastLogin",
          "type": "uint256"
        },
        {
          "internalType": "bool",
          "name": "is2FAEnabled",
          "type": "bool"
        },
        {
          "internalType": "bytes32",
          "name": "twoFactorSecret",
          "type": "bytes32"
        },
        {
          "internalType": "uint256",
          "name": "lastTOTPTimestamp",
          "type": "uint256"
        }
      ],
      "stateMutability": "view",
      "type": "function",
      "constant": true
    },
    {
      "inputs": [
        {
          "internalType": "address",
          "name": "_userAddress",
          "type": "address"
        },
        {
          "internalType": "string",
          "name": "_role",
          "type": "string"
        }
      ],
      "name": "registerUser",
      "outputs": [],
      "stateMutability": "nonpayable",
      "type": "function"
    },
    {
      "inputs": [
        {
          "internalType": "address",
          "name": "_doctorAddress",
          "type": "address"
        }
      ],
      "name": "registerDoctor",
      "outputs": [],
      "stateMutability": "nonpayable",
      "type": "function"
    },
    {
      "inputs": [
        {
          "internalType": "bytes32",
          "name": "_hashedSecret",
          "type": "bytes32"
        }
      ],
      "name": "enable2FA",
      "outputs": [],
      "stateMutability": "nonpayable",
      "type": "function"
    },
    {
      "inputs": [],
      "name": "initiateLogin",
      "outputs": [],
      "stateMutability": "nonpayable",
      "type": "function"
    },
    {
      "inputs": [
        {
          "internalType": "string",
          "name": "_code",
          "type": "string"
        }
      ],
      "name": "complete2FALogin",
      "outputs": [],
      "stateMutability": "nonpayable",
      "type": "function"
    },
    {
      "inputs": [
        {
          "internalType": "address",
          "name": "_userAddress",
          "type": "address"
        }
      ],
      "name": "isUserRegistered",
      "outputs": [
        {
          "internalType": "bool",
          "name": "",
          "type": "bool"
        }
      ],
      "stateMutability": "view",
      "type": "function",
      "constant": true
    },
    {
      "inputs": [
        {
          "internalType": "address",
          "name": "_userAddress",
          "type": "address"
        }
      ],
      "name": "getUserRole",
      "outputs": [
        {
          "internalType": "string",
          "name": "",
          "type": "string"
        }
      ],
      "stateMutability": "view",
      "type": "function",
      "constant": true
    },
    {
      "inputs": [
        {
          "internalType": "address",
          "name": "_userAddress",
          "type": "address"
        }
      ],
      "name": "is2FAEnabled",
      "outputs": [
        {
          "internalType": "bool",
          "name": "",
          "type": "bool"
        }
      ],
      "stateMutability": "view",
      "type": "function",
      "constant": true
    },
    {
      "inputs": [],
      "name": "disable2FA",
      "outputs": [],
      "stateMutability": "nonpayable",
      "type": "function"
    }
  ],
  "bytecode": "0x60806040523480156200001157600080fd5b5033600260006101000a81548173ffffffffffffffffffffffffffffffffffffffff021916908373ffffffffffffffffffffffffffffffffffffffff1602179055506040518060c001604052806001151581526020016040518060400160405280600581526020017f61646d696e0000000000000000000000000000000000000000000000000000008152508152602001600081526020016000151581526020016000801b815260200160008152506000803373ffffffffffffffffffffffffffffffffffffffff1673ffffffffffffffffffffffffffffffffffffffff16815260200190815260200160002060008201518160000160006101000a81548160ff02191690831515021790555060208201518160010190805190602001906200013c92919062000184565b506040820151816002015560608201518160030160006101000a81548160ff0219169083151502179055506080820151816004015560a0820151816005015590505062000299565b828054620001929062000234565b90600052602060002090601f016020900481019282620001b6576000855562000202565b82601f10620001d157805160ff191683800117855562000202565b8280016001018555821562000202579182015b8281111562000201578251825591602001919060010190620001e4565b5b50905062000211919062000215565b5090565b5b808211156200023057600081600090555060010162000216565b5090565b600060028204905060018216806200024d57607f821691505b602082108114156200026457620002636200026a565b5b50919050565b7f4e487b7100000000000000000000000000000000000000000000000000000000600052602260045260246000fd5b6120d480620002a96000396000f3fe608060405234801561001057600080fd5b50600436106100b45760003560e01c80635c60b1e4116100715780635c60b1e41461018b578063699ca998146101bb57806371f1ad62146101d7578063869c072f146101e15780638da5cb5b146101fd578063a87430ba1461021b576100b4565b80630399a8b9146100b95780630ea126f9146100d5578063163f7522146100f157806317cb6a2e14610121578063278208511461012b5780633f13e26f1461015b575b600080fd5b6100d360048036038101906100ce91906117ac565b610250565b005b6100ef60048036038101906100ea919061172f565b6105b9565b005b61010b60048036038101906101069190611706565b610a25565b6040516101189190611bf9565b60405180910390f35b610129610a7d565b005b61014560048036038101906101409190611706565b610c85565b6040516101529190611c7c565b60405180910390f35b61017560048036038101906101709190611706565b610de6565b6040516101829190611bf9565b60405180910390f35b6101a560048036038101906101a09190611706565b610e06565b6040516101b29190611bf9565b60405180910390f35b6101d560048036038101906101d09190611706565b610e5e565b005b6101df6110f5565b005b6101fb60048036038101906101f69190611783565b6112ca565b005b6102056114cd565b6040516102129190611bde565b60405180910390f35b61023560048036038101906102309190611706565b6114f3565b60405161024796959493929190611c14565b60405180910390f35b600160003373ffffffffffffffffffffffffffffffffffffffff1673ffffffffffffffffffffffffffffffffffffffff16815260200190815260200160002060009054906101000a900460ff166102dc576040517f08c379a00000000000000000000000000000000000000000000000000000000081526004016102d390611dde565b60405180910390fd5b6000803373ffffffffffffffffffffffffffffffffffffffff1673ffffffffffffffffffffffffffffffffffffffff16815260200190815260200160002060030160009054906101000a900460ff1661036a576040517f08c379a000000000000000000000000000000000000000000000000000000000815260040161036190611cde565b60405180910390fd5b60008060003373ffffffffffffffffffffffffffffffffffffffff1673ffffffffffffffffffffffffffffffffffffffff16815260200190815260200160002060040154905060068251146103f4576040517f08c379a00000000000000000000000000000000000000000000000000000000081526004016103eb90611cfe565b60405180910390fd5b601e6000803373ffffffffffffffffffffffffffffffffffffffff1673ffffffffffffffffffffffffffffffffffffffff168152602001908152602001600020600501546104429190611eb6565b4211610483576040517f08c379a000000000000000000000000000000000000000000000000000000000815260040161047a90611d5e565b60405180910390fd5b426000803373ffffffffffffffffffffffffffffffffffffffff1673ffffffffffffffffffffffffffffffffffffffff168152602001908152602001600020600501819055506000600160003373ffffffffffffffffffffffffffffffffffffffff1673ffffffffffffffffffffffffffffffffffffffff16815260200190815260200160002060006101000a81548160ff021916908315150217905550426000803373ffffffffffffffffffffffffffffffffffffffff1673ffffffffffffffffffffffffffffffffffffffff168152602001908152602001600020600201819055503373ffffffffffffffffffffffffffffffffffffffff167fd48e107b75fb4263f47c6775f9695146041b81f4e0eac8b4d6075fd5756cba94426040516105ad9190611dfe565b60405180910390a25050565b6000803373ffffffffffffffffffffffffffffffffffffffff1673ffffffffffffffffffffffffffffffffffffffff16815260200190815260200160002060000160009054906101000a900460ff16801561073f57506040518060400160405280600581526020017f61646d696e000000000000000000000000000000000000000000000000000000815250805190602001206000803373ffffffffffffffffffffffffffffffffffffffff1673ffffffffffffffffffffffffffffffffffffffff16815260200190815260200160002060010160405161069a9190611bc7565b6040518091039020148061073e57506040518060400160405280600681526020017f646f63746f720000000000000000000000000000000000000000000000000000815250805190602001206000803373ffffffffffffffffffffffffffffffffffffffff1673ffffffffffffffffffffffffffffffffffffffff1681526020019081526020016000206001016040516107349190611bc7565b6040518091039020145b5b61077e576040517f08c379a000000000000000000000000000000000000000000000000000000000815260040161077590611d7e565b60405180910390fd5b6000808373ffffffffffffffffffffffffffffffffffffffff1673ffffffffffffffffffffffffffffffffffffffff16815260200190815260200160002060000160009054906101000a900460ff161561080d576040517f08c379a000000000000000000000000000000000000000000000000000000000815260040161080490611d3e565b60405180910390fd5b6040518060400160405280600781526020017f70617469656e740000000000000000000000000000000000000000000000000081525080519060200120818051906020012014806108a057506040518060400160405280600681526020017f646f63746f720000000000000000000000000000000000000000000000000000815250805190602001208180519060200120145b6108df576040517f08c379a00000000000000000000000000000000000000000000000000000000081526004016108d690611d1e565b60405180910390fd5b6040518060c00160405280600115158152602001828152602001600081526020016000151581526020016000801b815260200160008152506000808473ffffffffffffffffffffffffffffffffffffffff1673ffffffffffffffffffffffffffffffffffffffff16815260200190815260200160002060008201518160000160006101000a81548160ff02191690831515021790555060208201518160010190805190602001906109919291906115d1565b506040820151816002015560608201518160030160006101000a81548160ff0219169083151502179055506080820151816004015560a082015181600501559050508173ffffffffffffffffffffffffffffffffffffffff167f48cac28ad4dc618e15f4c2dd5e97751182f166de97b25618318b2112aa951a2f82604051610a199190611c7c565b60405180910390a25050565b60008060008373ffffffffffffffffffffffffffffffffffffffff1673ffffffffffffffffffffffffffffffffffffffff16815260200190815260200160002060000160009054906101000a900460ff169050919050565b6000803373ffffffffffffffffffffffffffffffffffffffff1673ffffffffffffffffffffffffffffffffffffffff16815260200190815260200160002060000160009054906101000a900460ff16610b0b576040517f08c379a0000000000000000000000000000000000000000000000000000000008152600401610b0290611c9e565b60405180910390fd5b6000803373ffffffffffffffffffffffffffffffffffffffff1673ffffffffffffffffffffffffffffffffffffffff16815260200190815260200160002060030160009054906101000a900460ff16610b99576040517f08c379a0000000000000000000000000000000000000000000000000000000008152600401610b9090611cde565b60405180910390fd5b60008060003373ffffffffffffffffffffffffffffffffffffffff1673ffffffffffffffffffffffffffffffffffffffff16815260200190815260200160002060030160006101000a81548160ff0219169083151502179055506000801b6000803373ffffffffffffffffffffffffffffffffffffffff1673ffffffffffffffffffffffffffffffffffffffff1681526020019081526020016000206004018190555060008060003373ffffffffffffffffffffffffffffffffffffffff1673ffffffffffffffffffffffffffffffffffffffff16815260200190815260200160002060050181905550565b60606000808373ffffffffffffffffffffffffffffffffffffffff1673ffffffffffffffffffffffffffffffffffffffff16815260200190815260200160002060000160009054906101000a900460ff16610d15576040517f08c379a0000000000000000000000000000000000000000000000000000000008152600401610d0c90611c9e565b60405180910390fd5b6000808373ffffffffffffffffffffffffffffffffffffffff1673ffffffffffffffffffffffffffffffffffffffff1681526020019081526020016000206001018054610d6190611fa0565b80601f0160208091040260200160405190810160405280929190818152602001828054610d8d90611fa0565b8015610dda5780601f10610daf57610100808354040283529160200191610dda565b820191906000526020600020905b815481529060010190602001808311610dbd57829003601f168201915b50505050509050919050565b60016020528060005260406000206000915054906101000a900460ff1681565b60008060008373ffffffffffffffffffffffffffffffffffffffff1673ffffffffffffffffffffffffffffffffffffffff16815260200190815260200160002060030160009054906101000a900460ff169050919050565b600260009054906101000a900473ffffffffffffffffffffffffffffffffffffffff1673ffffffffffffffffffffffffffffffffffffffff163373ffffffffffffffffffffffffffffffffffffffff1614610eee576040517f08c379a0000000000000000000000000000000000000000000000000000000008152600401610ee590611dbe565b60405180910390fd5b6000808273ffffffffffffffffffffffffffffffffffffffff1673ffffffffffffffffffffffffffffffffffffffff16815260200190815260200160002060000160009054906101000a900460ff1615610f7d576040517f08c379a0000000000000000000000000000000000000000000000000000000008152600401610f7490611d3e565b60405180910390fd5b6040518060c001604052806001151581526020016040518060400160405280600681526020017f646f63746f7200000000000000000000000000000000000000000000000000008152508152602001600081526020016000151581526020016000801b815260200160008152506000808373ffffffffffffffffffffffffffffffffffffffff1673ffffffffffffffffffffffffffffffffffffffff16815260200190815260200160002060008201518160000160006101000a81548160ff02191690831515021790555060208201518160010190805190602001906110649291906115d1565b506040820151816002015560608201518160030160006101000a81548160ff0219169083151502179055506080820151816004015560a082015181600501559050508073ffffffffffffffffffffffffffffffffffffffff167f48cac28ad4dc618e15f4c2dd5e97751182f166de97b25618318b2112aa951a2f6040516110ea90611d9e565b60405180910390a250565b6000803373ffffffffffffffffffffffffffffffffffffffff1673ffffffffffffffffffffffffffffffffffffffff16815260200190815260200160002060000160009054906101000a900460ff16611183576040517f08c379a000000000000000000000000000000000000000000000000000000000815260040161117a90611c9e565b60405180910390fd5b6000803373ffffffffffffffffffffffffffffffffffffffff1673ffffffffffffffffffffffffffffffffffffffff16815260200190815260200160002060030160009054906101000a900460ff16156112335760018060003373ffffffffffffffffffffffffffffffffffffffff1673ffffffffffffffffffffffffffffffffffffffff16815260200190815260200160002060006101000a81548160ff0219169083151502179055506112c8565b426000803373ffffffffffffffffffffffffffffffffffffffff1673ffffffffffffffffffffffffffffffffffffffff168152602001908152602001600020600201819055503373ffffffffffffffffffffffffffffffffffffffff167fd48e107b75fb4263f47c6775f9695146041b81f4e0eac8b4d6075fd5756cba94426040516112bf9190611dfe565b60405180910390a25b565b6000803373ffffffffffffffffffffffffffffffffffffffff1673ffffffffffffffffffffffffffffffffffffffff16815260200190815260200160002060000160009054906101000a900460ff16611358576040517f08c379a000000000000000000000000000000000000000000000000000000000815260040161134f90611c9e565b60405180910390fd5b6000803373ffffffffffffffffffffffffffffffffffffffff1673ffffffffffffffffffffffffffffffffffffffff16815260200190815260200160002060030160009054906101000a900460ff16156113e7576040517f08c379a00000000000000000000000000000000000000000000000000000000081526004016113de90611cbe565b60405180910390fd5b60016000803373ffffffffffffffffffffffffffffffffffffffff1673ffffffffffffffffffffffffffffffffffffffff16815260200190815260200160002060030160006101000a81548160ff021916908315150217905550806000803373ffffffffffffffffffffffffffffffffffffffff1673ffffffffffffffffffffffffffffffffffffffff168152602001908152602001600020600401819055503373ffffffffffffffffffffffffffffffffffffffff167f4b31ed05a4d8ce9de4f9d476a272179c7af15d7fddd9adaaea416ab9e799edeb60405160405180910390a250565b600260009054906101000a900473ffffffffffffffffffffffffffffffffffffffff1681565b60006020528060005260406000206000915090508060000160009054906101000a900460ff169080600101805461152990611fa0565b80601f016020809104026020016040519081016040528092919081815260200182805461155590611fa0565b80156115a25780601f10611577576101008083540402835291602001916115a2565b820191906000526020600020905b81548152906001019060200180831161158557829003601f168201915b5050505050908060020154908060030160009054906101000a900460ff16908060040154908060050154905086565b8280546115dd90611fa0565b90600052602060002090601f0160209004810192826115ff5760008555611646565b82601f1061161857805160ff1916838001178555611646565b82800160010185558215611646579182015b8281111561164557825182559160200191906001019061162a565b5b5090506116539190611657565b5090565b5b80821115611670576000816000905550600101611658565b5090565b600061168761168284611e4a565b611e19565b90508281526020810184848401111561169f57600080fd5b6116aa848285611f5e565b509392505050565b6000813590506116c181612070565b92915050565b6000813590506116d681612087565b92915050565b600082601f8301126116ed57600080fd5b81356116fd848260208601611674565b91505092915050565b60006020828403121561171857600080fd5b6000611726848285016116b2565b91505092915050565b6000806040838503121561174257600080fd5b6000611750858286016116b2565b925050602083013567ffffffffffffffff81111561176d57600080fd5b611779858286016116dc565b9150509250929050565b60006020828403121561179557600080fd5b60006117a3848285016116c7565b91505092915050565b6000602082840312156117be57600080fd5b600082013567ffffffffffffffff8111156117d857600080fd5b6117e4848285016116dc565b91505092915050565b6117f681611f0c565b82525050565b61180581611f1e565b82525050565b61181481611f2a565b82525050565b6000815461182781611fa0565b6118318186611e9a565b9450600182166000811461184c576001811461185d57611890565b60ff19831686528186019350611890565b61186685611e7a565b60005b8381101561188857815481890152600182019150602081019050611869565b838801955050505b50505092915050565b60006118a482611e8f565b6118ae8185611ea5565b93506118be818560208601611f6d565b6118c78161205f565b840191505092915050565b60006118df601383611ea5565b91507f55736572206e6f742072656769737465726564000000000000000000000000006000830152602082019050919050565b600061191f601383611ea5565b91507f32464120616c726561647920656e61626c6564000000000000000000000000006000830152602082019050919050565b600061195f600f83611ea5565b91507f324641206e6f7420656e61626c656400000000000000000000000000000000006000830152602082019050919050565b600061199f601383611ea5565b91507f496e76616c696420636f6465206c656e677468000000000000000000000000006000830152602082019050919050565b60006119df600c83611ea5565b91507f496e76616c696420726f6c6500000000000000000000000000000000000000006000830152602082019050919050565b6000611a1f601783611ea5565b91507f5573657220616c726561647920726567697374657265640000000000000000006000830152602082019050919050565b6000611a5f601183611ea5565b91507f436f646520616c726561647920757365640000000000000000000000000000006000830152602082019050919050565b6000611a9f602283611ea5565b91507f4f6e6c792061646d696e206f7220646f63746f722063616e2063616c6c20746860008301527f69730000000000000000000000000000000000000000000000000000000000006020830152604082019050919050565b6000611b05600683611ea5565b91507f646f63746f7200000000000000000000000000000000000000000000000000006000830152602082019050919050565b6000611b45601883611ea5565b91507f4f6e6c79206f776e65722063616e2063616c6c207468697300000000000000006000830152602082019050919050565b6000611b85601483611ea5565b91507f4e6f2070656e64696e6720324641206c6f67696e0000000000000000000000006000830152602082019050919050565b611bc181611f54565b82525050565b6000611bd3828461181a565b915081905092915050565b6000602082019050611bf360008301846117ed565b92915050565b6000602082019050611c0e60008301846117fc565b92915050565b600060c082019050611c2960008301896117fc565b8181036020830152611c3b8188611899565b9050611c4a6040830187611bb8565b611c5760608301866117fc565b611c64608083018561180b565b611c7160a0830184611bb8565b979650505050505050565b60006020820190508181036000830152611c968184611899565b905092915050565b60006020820190508181036000830152611cb7816118d2565b9050919050565b60006020820190508181036000830152611cd781611912565b9050919050565b60006020820190508181036000830152611cf781611952565b9050919050565b60006020820190508181036000830152611d1781611992565b9050919050565b60006020820190508181036000830152611d37816119d2565b9050919050565b60006020820190508181036000830152611d5781611a12565b9050919050565b60006020820190508181036000830152611d7781611a52565b9050919050565b60006020820190508181036000830152611d9781611a92565b9050919050565b60006020820190508181036000830152611db781611af8565b9050919050565b60006020820190508181036000830152611dd781611b38565b9050919050565b60006020820190508181036000830152611df781611b78565b9050919050565b6000602082019050611e136000830184611bb8565b92915050565b6000604051905081810181811067ffffffffffffffff82111715611e4057611e3f612030565b5b8060405250919050565b600067ffffffffffffffff821115611e6557611e64612030565b5b601f19601f8301169050602081019050919050565b60008190508160005260206000209050919050565b600081519050919050565b600081905092915050565b600082825260208201905092915050565b6000611ec182611f54565b9150611ecc83611f54565b9250827fffffffffffffffffffffffffffffffffffffffffffffffffffffffffffffffff03821115611f0157611f00611fd2565b5b828201905092915050565b6000611f1782611f34565b9050919050565b60008115159050919050565b6000819050919050565b600073ffffffffffffffffffffffffffffffffffffffff82169050919050565b6000819050919050565b82818337600083830152505050565b60005b83811015611f8b578082015181840152602081019050611f70565b83811115611f9a576000848401525b50505050565b60006002820490506001821680611fb857607f821691505b60208210811415611fcc57611fcb612001565b5b50919050565b7f4e487b7100000000000000000000000000000000000000000000000000000000600052601160045260246000fd5b7f4e487b7100000000000000000000000000000000000000000000000000000000600052602260045260246000fd5b7f4e487b7100000000000000000000000000000000000000000000000000000000600052604160045260246000fd5b6000601f19601f8301169050919050565b61207981611f0c565b811461208457600080fd5b50565b61209081611f2a565b811461209b57600080fd5b5056fea264697066735822122072cfba71cfd6fd8282ccbc9db9e58c213c4b6278a433b108ed8ec63d81b2228264736f6c63430008000033",
  "immutableReferences": {},
  "source": "// SPDX-License-Identifier: MIT\npragma solidity ^0.8.0;\n\ncontract Authentication {\n    struct User {\n        bool isRegistered;\n        string role;\n        uint256 lastLogin;\n        bool is2FAEnabled;\n        bytes32 twoFactorSecret;\n        uint256 lastTOTPTimestamp;\n    }\n    \n    mapping(address => User) public users;\n    mapping(address => bool) public pendingTwoFactorAuth;\n    address public owner;\n    \n    event UserRegistered(address indexed userAddress, string role);\n    event UserLoggedIn(address indexed userAddress, uint256 timestamp);\n    event TwoFactorEnabled(address indexed userAddress);\n    \n    modifier onlyOwner() {\n        require(msg.sender == owner, \"Only owner can call this\");\n        _;\n    }\n    \n    modifier onlyAdminOrDoctor() {\n        require(\n            users[msg.sender].isRegistered && \n            (keccak256(bytes(users[msg.sender].role)) == keccak256(bytes(\"admin\")) ||\n             keccak256(bytes(users[msg.sender].role)) == keccak256(bytes(\"doctor\"))),\n            \"Only admin or doctor can call this\"\n        );\n        _;\n    }\n    \n    constructor() {\n        owner = msg.sender;\n        // Register owner as admin\n        users[msg.sender] = User({\n            isRegistered: true,\n            role: \"admin\",\n            lastLogin: 0,\n            is2FAEnabled: false,\n            twoFactorSecret: bytes32(0),\n            lastTOTPTimestamp: 0\n        });\n    }\n    \n    // Only admin/doctor can register new users\n    function registerUser(address _userAddress, string memory _role) public onlyAdminOrDoctor {\n        require(!users[_userAddress].isRegistered, \"User already registered\");\n        require(\n            keccak256(bytes(_role)) == keccak256(bytes(\"patient\")) ||\n            keccak256(bytes(_role)) == keccak256(bytes(\"doctor\")),\n            \"Invalid role\"\n        );\n        \n        users[_userAddress] = User({\n            isRegistered: true,\n            role: _role,\n            lastLogin: 0,\n            is2FAEnabled: false,\n            twoFactorSecret: bytes32(0),\n            lastTOTPTimestamp: 0\n        });\n        \n        emit UserRegistered(_userAddress, _role);\n    }\n    \n    // Only owner can register doctors/admins\n    function registerDoctor(address _doctorAddress) public onlyOwner {\n        require(!users[_doctorAddress].isRegistered, \"User already registered\");\n        \n        users[_doctorAddress] = User({\n            isRegistered: true,\n            role: \"doctor\",\n            lastLogin: 0,\n            is2FAEnabled: false,\n            twoFactorSecret: bytes32(0),\n            lastTOTPTimestamp: 0\n        });\n        \n        emit UserRegistered(_doctorAddress, \"doctor\");\n    }\n    \n    function enable2FA(bytes32 _hashedSecret) public {\n        require(users[msg.sender].isRegistered, \"User not registered\");\n        require(!users[msg.sender].is2FAEnabled, \"2FA already enabled\");\n        \n        users[msg.sender].is2FAEnabled = true;\n        users[msg.sender].twoFactorSecret = _hashedSecret;\n        \n        emit TwoFactorEnabled(msg.sender);\n    }\n    \n    function initiateLogin() public {\n        require(users[msg.sender].isRegistered, \"User not registered\");\n        if (users[msg.sender].is2FAEnabled) {\n            pendingTwoFactorAuth[msg.sender] = true;\n        } else {\n            users[msg.sender].lastLogin = block.timestamp;\n            emit UserLoggedIn(msg.sender, block.timestamp);\n        }\n    }\n    \n    function complete2FALogin(string memory _code) public {\n        require(pendingTwoFactorAuth[msg.sender], \"No pending 2FA login\");\n        require(users[msg.sender].is2FAEnabled, \"2FA not enabled\");\n        \n        bytes32 storedSecret = users[msg.sender].twoFactorSecret;\n        \n        require(bytes(_code).length == 6, \"Invalid code length\");\n        \n        require(block.timestamp > users[msg.sender].lastTOTPTimestamp + 30, \"Code already used\");\n        \n        users[msg.sender].lastTOTPTimestamp = block.timestamp;\n        pendingTwoFactorAuth[msg.sender] = false;\n        users[msg.sender].lastLogin = block.timestamp;\n        emit UserLoggedIn(msg.sender, block.timestamp);\n    }\n    \n    function isUserRegistered(address _userAddress) public view returns (bool) {\n        return users[_userAddress].isRegistered;\n    }\n    \n    function getUserRole(address _userAddress) public view returns (string memory) {\n        require(users[_userAddress].isRegistered, \"User not registered\");\n        return users[_userAddress].role;\n    }\n    \n    function is2FAEnabled(address _userAddress) public view returns (bool) {\n        return users[_userAddress].is2FAEnabled;\n    }\n    \n    function disable2FA() public {\n        require(users[msg.sender].isRegistered, \"User not registered\");\n        require(users[msg.sender].is2FAEnabled, \"2FA not enabled\");\n        \n        users[msg.sender].is2FAEnabled = false;\n        users[msg.sender].twoFactorSecret = bytes32(0);\n        users[msg.sender].lastTOTPTimestamp = 0;\n    }\n} ",
  "sourcePath": "/Users/tharushkadinujaya/Developer/ZKPhealth/contracts/Authentication.sol",
  "compiler": {
    "name": "solc",
    "version": "0.8.0+commit.c7dfd78e.Emscripten.clang"
  },
  "schemaVersion": "3.4.16",
  "updatedAt": "2024-11-23T20:49:30.504Z",
  "networkType": "ethereum",
  "devdoc": {
    "kind": "dev",
    "methods": {},
    "version": 1
  },
  "userdoc": {
    "kind": "user",
    "methods": {},
    "version": 1
  }
}